:10000000980C0020F908000069070000F5080000BE
:10001000F5080000F5080000F5080000F5080000EC
:10002000000000000000000000000000F5080000D3
:10003000F508000000000000F5080000F5080000C9
:100040003505000000000000000000000000000076
:1000500000000000000000000000000000000000A0
:100060000000000000000000000000000000000090
:100070000000000000000000000000000000000080
:100080000000000000000000000000000000000070
:100090000000000000000000000000000000000060
:1000A0000000000000000000000000000000000050
:1000B0000000000000000000000000000000000040
:1000C0000000000000000000000000000000000030
:1000D0000000000000000000000000000000000020
:1000E0000000000000000000000000000000000010
:1000F0000000000000000000000000000000000000
:1001000000000000000000000000000000000000EF
:1001100000000000000000000000000000000000DF
:1001200000000000000000000000000000000000CF
:1001300000000000000000000000000000000000BF
:1001400000000000000000000000000000000000AF
:10015000000000000000000000000000000000009F
:10016000000000000000000000000000000000008F
:10017000000000000000000000000000000000007F
:10018000000000000000000000000000000000006F
:10019000000000000000000000000000000000005F
:1001A000000000000000000000000000000000004F
:1001B000000000000000000000000000000000003F
:1001C000FFFFFFFFFFFFFFFFFFFFFFFFFFFFFFFF3F
:1001D000FFFFFFFFFFFFFFFFFFFFFFFFFFFFFFFF2F
:1001E000FFFFFFFFFFFFFFFFFFFFFFFFFFFFFFFF1F
:1001F000FFFFFFFFFFFFFFFFFFFFFFFFFFFFFFFF0F
:100200000348044B834202D0034B03B118477047A5
:10021000500600205006002000000000064B074951
:10022000C91A891048BF0131491003D0044B0BB1E2
:1002300001481847704700BF5006002050060020B4
:100240000000000010B5064C237843B9FFF7D8FF33
:10025000044B13B10448AFF300800123237010BD99
:100260007006002000000000500B000008B5054B90
:100270001BB105490548AFF30080BDE80840FFF712
:10028000CDBF00BF0000000074060020500B00002E
:1002900010B4054CD4E90023501C43F10001C4E91B
:1002A00000015DF8044B70479006002008B572B657
:1002B0000449054800F094F8034800F073F862B66A
:1002C000FEE700BF600A00009806002008B5FFF7AF
:1002D000EDFF002008BD00BF4FF4964310B483B07B
:1002E000019343681A7802BB4AF680232B4AA2F88E
:1002F0008430B2F884309BB2802B08D110E0019B8F
:10030000013B0193B2F884309BB2802B08D0019B53
:10031000002BF4D14FF4FA7003B05DF8044B704732
:10032000002003B05DF8044B704793F911301C4A6C
:1003300003F1C00152F8214024F4803442F82140F6
:1003400052F82110BFF35F8F012103F01F045B09F6
:100350009B0003F1604303F5614301FA04F4C3F821
:1003600080411C60436893F9130000F1C00352F808
:10037000234024F4803442F8234052F82330BFF362
:100380005F8F43099B0000F01F0003F16043814031
:1003900003F56143C3F880111960A5E700E07F40D1
:1003A000006000408268117A01F00101137AC3F302
:1003B00040039942FAD141680B78012B09D1C368F7
:1003C00091F810C0054941F82C30013B9BB21380D5
:1003D0008268F12300201372704700BFB40600202A
:1003E0000B7C70B503F5800303F568631B020246BE
:1003F00041608360EFF31084012383F31088087C4D
:10040000032879D8C0F103008340DB43424D4348C1
:10041000ED682B4003600D7C4048414B032D98BF95
:1004200003461B6884F31088002093681872906854
:10043000037AC3F3400C9B07E646F9D480F80AC060
:10044000C8690C7AC378057890F804C003F00703F4
:10045000002D4AD1002C57D10025906880F80CC09F
:10046000906885739068437293682E489C724B68BD
:100470005468D360247C40F824309068013B9BB2E0
:10048000038091F91230AB4226DB487C03F16044D3
:100490000001254EC0B204F5614484F800032348EE
:1004A00046F8232003F1C00450F8246065F3104699
:1004B00040F8246050F82400BFF35F8F01245809EE
:1004C000800003F01F0300F1604000F5614004FA72
:1004D00003F3C0F88031036000204B69144C1361B2
:1004E0008B691460C2E9050370BD502D06BF7446C8
:1004F00043F050032B43AFE7C0F11300064D834098
:10050000DB4307482D6984E784F0020443EA0413BF
:10051000DBB22C46A0E700BF004008400C4008407A
:1005200010400840B40600200C0700200060004086
:100530005447410070B584B0EFF30383103B224A67
:100540005BB203F1C00152F8210020F4803042F880
:10055000210052F821201D4A52F82340D4E901120B
:100560000978137A0129DBB205D1F4211172A2684E
:1005700003F0F00313722269FAB1656901AED5B1D7
:1005800095E8070086E807009B0644BF00232B710F
:10059000A36928462B602369984763691BB196E8D5
:1005A000070083E80700A268137ADBB203F00F03A9
:1005B000137204B070BD3546E6E7A268DBB203F003
:1005C0000F03137204B070BD006000400C070020E0
:1005D000064B074993F826001A6A51F82030C2F3F7
:1005E00002620449D3400B60704700BF00E0014045
:1005F0005006002094080020F8B54AF20350012369
:100600003649374AA1F8FE03A2F80431B2F80431A2
:100610009BB2002BFAD14FF4004501214FF0090C99
:10062000304C314F314E6760314F2C48E760314FCD
:100630006761A2F800112660A560256190F8262068
:10064000056A54F82220C5F30265EA402A4D2A6063
:1006500080F8133480F8A2C090F88034002B36D094
:1006600000231E4981F8813481F8803481F83230CA
:1006700091F83C301A07FBD543F202100023174AC9
:10068000088581F82A3092F83C309B06FBD5012082
:10069000052313494FF0F10C81F81C011749116231
:1006A00082F8263092F82630106A54F82310C0F3EE
:1006B0000260C14029600024F0204FF42541104B16
:1006C00083F80CC01C721873A2F8FE13F8BD80F8F2
:1006D000801440F2C44000F01BF8C1E700E0014084
:1006E00000C001405006002000127A00002D3101A8
:1006F00000366E0100C2EB0B94080020211202218B
:1007000000200040A0F101000028FBD1704700BF8D
:100710004FF47A7310B400FB01F1114C114A2468B4
:10072000B2FBF4F2A1FB03043CB9B0FBF2F0800889
:1007300060B15DF8044BFFF7E5BF9200B1FBF2F149
:10074000A1FB03132BB908460028F2D15DF8044B36
:1007500070474FF0FF3C5DF8044B6046FFF7D2BF97
:100760009408002000CA9A3B70B500240A4B0B4E37
:10077000B3F84051ADB225FA04F3DB0704D556F8BF
:100780002430E0B203B198470134102CF3D1024B6E
:10079000A3F8305170BD00BF00600040CC060020BF
:1007A00030B56FF0FF0585B0032000F079F84FF009
:1007B000FF311F4C1F482246856400230125CDE9E7
:1007C0000111039104F1C00E32F8020F590960B112
:1007D00004A800EB810151F80C0C03F01F0C05FA82
:1007E0000CFC20EA0C0041F80C0C964503F10103C7
:1007F000EAD10199104B0F4A03201167C3F8801208
:1008000002995167C3F8841203999167C3F888125B
:1008100000F016F80023094803F1C00234F8021F63
:100820000133602B40F82210F6D105B030BD00BF77
:10083000860A00000080004000E100E00060004007
:10084000EFF31081012383F31088124B33F810204B
:1008500092B22AB133F81020013A92B223F8102054
:1008600033F810309BB293B910B40B4A0B4CB2F86A
:10087000FE3334F810009BB243F4254323EA00030F
:10088000A2F8FE3381F310885DF8044B704781F3C2
:10089000108870478C08002000E00140480B0000E1
:1008A00030B4EFF31081012383F310880E4A32F83D
:1008B00010309BB26BB90D4C0D4DB4F8FE3335F8CA
:1008C00010C09BB243EA0C0343F425439BB2A4F847
:1008D000FE3332F8103001339BB222F8103081F32E
:1008E000108830BC704700BF8C08002000E0014039
:1008F000480B000000BE704708B500F005F8FFF790
:10090000E5FCFEE7704700BF4FF4700270B5244B62
:10091000244CC3F8882000209C60FFF7F3FFFFF70A
:100920006BFE0120FFF7EEFF2368A3F5806383F3DE
:100930000A881D481D4A0021121A00F047F81C4879
:100940001C4A1D49121A00F049F81C4D1C4B5B1B38
:10095000002B07DD00249E1055F8043B0134984716
:10096000A642F9DCFFF734FE0320FFF799FF0023CE
:100970004FF6FF70134903F108020133092B21F8E8
:100980001200F8D10320FFF75BFF0220FFF7BAFF48
:10099000FFF706FFBDE87040002000F015B800BF6B
:1009A00000ED00E000000000700600209808002024
:1009B00000000020500600207C0B000048060020AC
:1009C0004C060020000D0840704700BF024403465B
:1009D000934200D1704703F8011BF9E70A44431E14
:1009E000914200D1704710B511F8014B914203F8C4
:1009F000014FF9D110BDFFFF4275696C7420776912
:100A000074682052656E6573617320416476616E0F
:100A100063656420466C657869626C6520536F6617
:100A20007477617265205061636B616765207665DC
:100A30007273696F6E20342E322E3000342E322EB7
:100A40003000000000000204F8B500BFF8BC08BC8C
:100A50009E467047F8B500BFF8BC08BC9E4670477C
:100A60000000000001000000000000000000000085
:100A7000000000009102000000000000800A000059
:100A800000000001000000FF400000000000000026
:100A90000000000000000000000000000000000056
:100AA0000000000000000000000000000000000046
:100AB0000000000000000000000000000000000036
:100AC0000000000000000000000000000000000026
:100AD0000000000000000000000000000000000016
:100AE0000000000000000000000000000000000006
:100AF00000000000000000000000000000000000F6
:100B000000000000000000000000000000000000E5
:100B100000000000000000000000000000000000D5
:100B200000000000000000000000000000000000C5
:100B300000000000000000000000000000000000B5
:100B4000000000000000000001000200080010008A
:100B50001000000000000000017A5200027C0E012B
:100B60001B0C0D0010000000180000000000000029
:0C0B700010000000000000000000000069
:100B7C004FF42A431649B1F884C0A1F88430B1F877
:100B8C0084001FFA8CFC80B268B14FF496420020AE
:100B9C0003E0002A08BF4FF4FA70B1F88430013A30
:100BAC009BB2002BF5D1BCF1010F00D070474DF674
:100BBC000111074B074AA3F84410A2F804C1B2F87C
:100BCC0004319BB2002BFAD10123A2F800317047FB
:100BDC0000E07F4000C00140B3214FF49640104B21
:100BEC00104A82B001901970D2F8803019040DD4DB
:100BFC0006E0019B013B0193D2F880301B0405D425
:100C0C00019B002BF5D1142002B07047054B40F22C
:100C1C00F5101B7C13F0100F08BF002002B07047BA
:100C2C0000007E4000E07F4050214FF49640104B76
:100C3C00104A82B001901970D2F8803019040DD48A
:100C4C0006E0019B013B0193D2F880301B0405D4D4
:100C5C00019B002BF5D1142002B07047054B40F2DC
:100C6C00F5101B7C13F0100F08BF002002B070476A
:100C7C0000007E4000E07F4070B5436804461A785F
:100C8C00F2B1012293F911301E48590903F01F03E8
:100C9C00203102FA03F340F82130BFF34F8FBFF33A
:100CAC006F8F636893F91330590903F01F039A404F
:100CBC0001F1200340F82320BFF34F8FBFF36F8F58
:100CCC00114BB3F884309BB2C3B1FFF785FF0546D7
:100CDC00FFF7AAFF064635B1FFF74AFF002384F859
:100CEC003430284670BDFFF743FF0023002E14BF9D
:100CFC003546054684F83430284670BD204600F051
:100D0C004FFAE2E700E100E000E07F40034630B537
:100D1C004FF0D00C4FF0200E10460F4D9A6A0F4C2E
:100D2C00226385F800E085F800C09A6A0A449A624A
:100D3C001A6B013A1A6320B1D4F880301A0402D528
:100D4C00002030BD28B1D4F8803001381B04F9D50F
:100D5C00F6E7142030BD00BF00007E4000E07F406D
:100D6C00F0B44D0882B0C1F34701002A4AD10126E4
:100D7C004368334F93F911305C0903F01F0320349F
:100D8C0006FA03F347F82430BFF34F8FBFF36F8F8E
:100D9C00E824C76A2B4B2C4E37631C701970002D3E
:100DAC004BD04FF0000C836A264E274C01691B88F0
:100DBC000191338004E0019B591E0191002B38D026
:100DCC00D4F880305F05F6D4C16A836A0231C162FF
:100DDC00016B0CF1010C02330139AC4583620163E8
:100DEC00E4D3D021174B1970BAB9436893F9113079
:100DFC00012203F01F0012495B09824041F82320B5
:100E0C00002017E0E824C76A0E4B0F4E37631C70A6
:100E1C001970002DC5D1D02119700B49D1F8803033
:100E2C001804EDD4D1F88030013A1B04E8D4002A20
:100E3C00F8D1142002B0F0BC7047D0221A70D4E75D
:100E4C0000E100E000007E4000E07F4010B5134B55
:100E5C001C7CE40607D4D3F8803019420FD1B0B90A
:100E6C000024204610BDD3F88040640403D5002430
:100E7C0093F810C01C74D3F88030194209D030B9E3
:100E8C00002AEDD01446FFF7A7FE204610BD0446FD
:100E9C00F9E70028FBD140F2F514F4E700E07F40BD
:100EAC0030B508224FF0400E8069144C144D154B90
:100EBC0083B0019003F1100C296384F800E02270D8
:100ECC0033F8022F63452280FAD1D0230C4A2370C9
:100EDC00D2F8803019040DD406E0019B013B01933C
:100EEC00D2F880301B0405D4019B002BF5D11420C3
:100EFC0003B030BD002003B030BD00BF00007E4009
:100F0C0000E07F40360600206FEA415110B44FF0EC
:100F1C00FF346FEA5151064B42EAC032C3E9024436
:100F2C0042F4F0421C60DA8099805DF8044B704703
:100F3C00380600204FF4964310B483B001934368F5
:100F4C001A78F2B1012293F91130204C590903F0AF
:100F5C001F03203102FA03F344F82130BFF34F8F03
:100F6C00BFF36F8F436893F91330590903F01F03D4
:100F7C009A4001F1200344F82320BFF34F8FBFF3B5
:100F8C006F8F4AF601234FF45941114AA2F84410CD
:100F9C00A2F88430B2F884309BB2012B08D110E057
:100FAC00019B013B0193B2F884309BB2012B08D01A
:100FBC00019B002BF4D14FF4FA7003B05DF8044B95
:100FCC007047002003B05DF8044B704700E100E06F
:100FDC0000E07F4038B50546FFF7ACFFA0B92B6B9E
:100FEC000BB916E088B98021AA682846FFF7B8FE2D
:100FFC0018224FF4A041FFF729FF2B6B0446002B5E
:10100C00F0D1FFF7B5FD14B938BDFFF7B1FD20469F
:10101C0038BDBDE83840ABE538B5816202630446A3
:10102C00FFF788FF08BB0122144BA3F8E020236BC9
:10103C000BB91FE0D0B9D4E90732A16A2046B1F54B
:10104C00803F36BF1A464FF400414FF40051FFF772
:10105C005DFE19224FF4C041FFF7F8FE236B0546E5
:10106C00002BE7D1FFF784FD15B938BDFFF780FDE4
:10107C00284638BDBDE838407AE500BF00E07F4027
:10108C002DE9F041114B05460E469046D3F8DC7025
:10109C00FFF750FF0446A8B9FF0F4FEA5832384605
:1010AC00710BFFF731FF28460949FFF7F9FE21467E
:1010BC001822FFF7CBFE0546FFF75AFD002D14BF93
:1010CC002C4604462046BDE8F08100BF00E07F407E
:1010DC0030A10001F8B507460D461646FFF72AFF6A
:1010EC00044630BB3EB1144B45F4CC41A3F8E81098
:1010FC00BDE8F8403CE54FF6FF7115F0010F4FF0DD
:10110C00FF3247F6FF7508BF0D460C4B0C493846AD
:10111C00C3E90022C3E90222DD80FFF7C1FE2146AC
:10112C001822FFF793FE0446FFF722FD002C08BFA0
:10113C0004462046F8BD00BF00E07F403806002082
:10114C0030A10001F8B506460C461546FFF7F2FE35
:10115C00F0B9114F21463B4604F11000CDB10A689D
:10116C000431814243F8042BF8D115B1FB891D439E
:10117C00FD814AF250113046FFF792FE18220021F1
:10118C00FFF764FE0446FFF7F3FC002C18BF204663
:10119C00F8BD4FF0FF32E3E73806002000000000F6
:1011AC005FF800F0D9020000FFFF00000000000013
:1011BC0000000000000000006D020000450200006D
:020000040100F9
:10A10000FFFFFFFFFFFFFFFFFFFFFFFFFFFFFFFF5F
:04A13400FFFFFFFF2B
:10A20000FFFDFFFFFFFFFFFFFFFFFFFFFFFFFFFF60
:10A21000FFFFFFFFFFFFFFFFFFFFFFFFFFFFFFFF4E
:10A22000FFFFFFFFFFFFFFFFFFFFFFFFFFFFFFFF3E
:10A23000FFFFFFFFFFFFFFFFFFFFFFFFFFFFFFFF2E
:10A24000FFFFFFFFFFFFFFFFFFFFFFFFFFFFFFFF1E
:10A25000FFFFFFFFFFFFFFFFFFFFFFFFFFFFFFFF0E
:10A26000FFFFFFFFFFFFFFFFFFFFFFFFFFFFFFFFFE
:10A27000FFFFFFFFFFFFFFFFFFFFFFFFFFFFFFFFEE
:10A28000F8F8FFFFFFFFFFFFFFFFFFFFFFFFFFFFEC
:10A29000FFFFFFFFFFFFFFFFFFFFFFFFFFFFFFFFCE
:10A2A000FFFFFFFFFFFFFFFFFFFFFFFFFFFFFFFFBE
:10A2B000FFFFFFFFFFFFFFFFFFFFFFFFFFFFFFFFAE
:10A2C000FFFFFFFFFFFFFFFFFFFFFFFFFFFFFFFF9E
:04000003000008F9F8
:00000001FF
