:1000000090460020CD1F0000F51D0000C91F000014
:10001000C91F0000C91F0000C91F0000C91F000040
:10002000000000000000000000000000C91F0000E8
:10003000C91F000000000000C91F0000C91F000008
:10004000ED1B000049190000D91800000000000055
:1000500000000000000000000000000000000000A0
:100060000000000000000000000000000000000090
:100070000000000000000000000000000000000080
:100080000000000000000000000000000000000070
:100090000000000000000000000000000000000060
:1000A0000000000000000000000000000000000050
:1000B0000000000000000000000000000000000040
:1000C0000000000000000000000000000000000030
:1000D0000000000000000000000000000000000020
:1000E0000000000000000000000000000000000010
:1000F0000000000000000000000000000000000000
:1001000000000000000000000000000000000000EF
:1001100000000000000000000000000000000000DF
:1001200000000000000000000000000000000000CF
:1001300000000000000000000000000000000000BF
:1001400000000000000000000000000000000000AF
:10015000000000000000000000000000000000009F
:10016000000000000000000000000000000000008F
:10017000000000000000000000000000000000007F
:10018000000000000000000000000000000000006F
:10019000000000000000000000000000000000005F
:1001A000000000000000000000000000000000004F
:1001B000000000000000000000000000000000003F
:1001C0000348044B834202D0034B03B118477047E6
:1001D0007C0200207C02002000000000064B074942
:1001E000C91A891048BF0131491003D0044B0BB123
:1001F00001481847704700BF7C0200207C020020A5
:100200000000000010B5064C237843B9FFF7D8FF73
:10021000044B13B10448AFF300800123237010BDD9
:100220009802002000000000442B000008B5054B98
:100230001BB105490548AFF30080BDE80840FFF752
:10024000CDBF00BF000000009C020020442B000036
:1002500030B5BDB009AB04464B2218460C4902F03C
:1002600021F8034601A96846009300F0BBFCA446B0
:10027000054601AC0FCCACE80F0094E80F008CE809
:100280000F0028461CA900F075FD28463DB030BD82
:100290008C27000038B572B61C491D4801F0F6FBEA
:1002A0001B4801F0C3FB00F0B5FD1A4C20221A498F
:1002B000206200F095F82146606200F0FFF80230FD
:1002C00018D062B6154C23783BB94FF47A710A20E6
:1002D00001F064FD2378002BF7D0BFF34F8F104956
:1002E000104BCA6802F4E0621343CB60BFF34F8F38
:1002F00000BFFDE70C4D0C49606A00F07DF80FCDA2
:100300000FC495E80F0084E80F00DAE7FC2800002E
:1003100004030020B802002000020008B5020020FB
:1003200000ED00E00400FA050000002070B5184E52
:10033000A8B0337893B91749D1E90023541C43F18D
:100340000005C1E90045D1E90001A0F51C53103BAF
:100350000B4304BF0123337028B070BD6846FFF71C
:1003600077FF04468022002108A801F071FF204693
:1003700008A900F0FFFC012CDDD1074B6946586A43
:1003800000F03AF808B9054B1C7000233370D2E72F
:10039000B4020020E8020020B8020020B5020020CC
:1003A000C0B1C1B14FF6FF7310B40C4A01391468E3
:1003B00000F1FF3C01441CF8012F82EA132234F8BB
:1003C0001220614582EA03239BB21846F3D15DF8FF
:1003D000044B704770474FF6FF70704720000020B5
:1003E00070B5044638B10C200E46154601F066FE85
:1003F000C0E90046856070BD00285BD02DE9F84F4C
:100400000546D0E90083D8F808000E46191AAB68F3
:10041000D8F800205C1D14440C44B1FBF2F3B4FB8B
:10042000F2F4E41A02FB04F403FB0209E31D23F0D7
:10043000070300AFADEB030D00212246684601F033
:1004400007FF23466A464946404600F005FD70BB5B
:100450006B68D5F808B0A3EB090808F1060AEA446E
:1004600031465A46504601F0E3FE18B90120BD4618
:10047000BDE8F88F59463046FFF792FF4FF0A5339D
:100480004DF80830E8443146AA68A8F80400504600
:1004900001F008FF23466A464946286800F022FD1D
:1004A000002818BF6FF00400BD46BDE8F88F6FF05C
:1004B0000200DCE74FF0FF30704700BF2DE9F0414C
:1004C0000E46D0E9011303F10D0222F0070200AF3E
:1004D000ADEB020D063304466A46006800F0BCFC32
:1004E000009BB3F1A53F12D10DF106052846A16886
:1004F000BDF80480FFF754FF80450BD129463046F4
:10050000A26801F0CFFE0020BD46BDE8F0816FF08B
:100510000100F9E76FF00200F6E700BF0346013083
:10052000B1B122221A8091F900302BB100F8013BC1
:1005300011F9013F002BF9D100212223064A017055
:1005400000F8013B12F9013F002BF9D1037070470D
:100550007B221A80704700BFD827000010F9013CA9
:10056000074A2C2B4FF07D0308BF00F1FF3000F845
:10057000013B12F9013F002BF9D10370704700BF16
:10058000DC27000022232DE9F04120F8013B99B13E
:1005900091F900302BB100F8013B11F9013F002B1C
:1005A000F9D1002422232E49047000F8013B11F9EF
:1005B000013F002BF9D1037092F90030002B3AD0A3
:1005C000284C4FF05C0E43F275083027264D661E0E
:1005D0000AE0222B0AD05C2B08D02F2B06D0037008
:1005E00012F9013F013033B31F2BF2DC002380F8F6
:1005F00000E092F900C014F91310614528D00133CE
:10060000082BF8D1A0F80180C77092F900300630AD
:10061000002BB8BF0F33C3F30313EB5C00F8023CAD
:10062000137803F00F03EB5C00F8013C12F9013F73
:100630000130002BD8D1002122230C4A017000F890
:10064000013B12F9013F002BF9D10370BDE8F081A5
:1006500016F91330002BD5D043700130C0E700BF2E
:10066000E0270000B1280000EC270000E42700008C
:1006700010F9013C2C2B04BF002300F8013D70470A
:1006800003781F2B48D930B502460146234C244D30
:1006900006E0104601F8013B4378421C1F2B1BD992
:1006A000222B02F1010034D05C2BF2D192F801C070
:1006B000BCF1750F12D1053210F8013FEB5C13F05D
:1006C000440F09D08242F7D13F23104601F8013B85
:1006D0004378421C1F2BE3D8002030BD002314F9BF
:1006E00013204FFA8CFC624504EB430E03F1010327
:1006F00009D0082BF0D014F9132004EB430E624507
:1007000003F10103F5D19EF90130002BE4D0DBB2F7
:10071000C0E700230B7030BD00207047EC280000BC
:10072000412A0000012340F8043C50F80C0C7047AB
:1007300050E90223934209D250F80C2C591C03EBC8
:10074000830340F8041C02EB8300704700207047CD
:100750002C2811D0094A01E098420DD012F9013B32
:10076000002BF9D1064A01E0984205D012F9013B6D
:10077000002BF9D11846704701207047002800006F
:100780000828000070B504461D46501E03E014F909
:1007900001CB944516D110F9012F002AF7D194F915
:1007A00000603046FFF7D4FF58B1094801E0964297
:1007B0000AD010F9012B002AF9D1204600F8012BAC
:1007C0000D7470BD002070BD20460D74F9E700BFA8
:1007D000082800002DE9F84F00270D4690460F74B9
:1007E0008F600F60A94E90F9014000F10109002CC3
:1007F00000F0C080A54A02E0A34200F0F68012F9A2
:10080000013B002BF8D199F900302C2B00F0E88047
:100810002A7C002A14BF5D227D22934200F0EE80E4
:100820004046D8F8043098478246002800F0A2805D
:100830002B7C012B00F0EE8099F90030222B40F048
:10084000998009F10100CAF80400FFF719FF002898
:1008500000F0908090F90040002C00F08B80324630
:1008600002E09C4200F0818012F9013B002BF8D19C
:1008700090F900303A2B7DD190F90110002979D000
:1008800000F10109324602E08B4200F0B18012F91A
:10089000013B002BF8D1CAF80070AB68002B00F0C8
:1008A000C080EB68C3F800A0C5F80CA0CAF8089097
:1008B00099F90030222B00F0BF80A3F15B02D1B286
:1008C000202914D8202A12D8DFE802F08111111152
:1008D0001111111111111179111111111111117140
:1008E00011111111116411111111111157002D2B3A
:1008F00008BF99F90130664A18BFCB46D15608BFE8
:1009000009F1010B01F00400490733D5302B00F049
:10091000A2807BB338B11BF9013F5BB3D15601F024
:1009200004000028F7D104238AF810309BF9004016
:100930002E2C00F0DD8024F02003452B00F0938066
:100940002046FFF705FFA8B19AF81030042B0AD112
:1009500099F90020ABEB09032D2A00F0E480132B5A
:1009600008D800F0E780D946ADE010F9014F002C1F
:100970007FF475AF0020BDE8F88F0023CAF800505F
:1009800009F101098AF81030CAF80830554699F97A
:1009900000402CE74846514603233E4AFFF7F2FE4B
:1009A0008146B9F1000FE5D099F900401FE74846AC
:1009B00051460623384AFFF7E5FE8146F1E74846EF
:1009C00051460323354AFFF7DDFE8146E9E701235F
:1009D0008AF810300023CAF800505546CAF808308B
:1009E00099F9014009F1010901E719F9014FFEE602
:1009F00019F9011F00297FF445AFBBE7484600F80D
:100A0000017B2B68002BB6D02F6099F901401D4661
:100A10008146ECE64760CAF80070AB68002B7FF4B3
:100A200040AFC5F808A0C5F80CA0CAF8089099F91D
:100A30000030222B7FF441AF09F10100CAF8080011
:100A4000FFF71EFE8146002894D002238AF810305A
:100A500090F90040CBE69BF901300BF1010BD35C20
:100A60005B0787D45FE79BF901302D2B3BD02B2B05
:100A700039D00BF1010BD35C59077FF57BAF9BF9A4
:100A800001300BF1010983B974E700BF00280000B1
:100A9000412A00000C2800001C2800001428000037
:100AA00019F9013F002B3FF465AFD35C5B07F7D426
:100AB00005238AF8103099F900402046FFF748FED8
:100AC00000283FF457AF224A02E0A3423FF492AE1F
:100AD00012F9013B002BF8D14A4602F8013B99F983
:100AE0000140914683E69BF902300BF1020BC2E70D
:100AF0009BF90130D35C5C077FF53CAF9BF902109A
:100B00000BF1020329B935E713F9011F00293FF45E
:100B100031AF515C4807F7D405218AF810109B4685
:100B200093F9004007E7142B3FF624AF7FF41BAF87
:100B3000084800E00848002349468BF8003001F0DF
:100B4000A7FB0028FFF616AFD9468BF80040BAE79E
:100B500008280000D4280000C028000038B58468A8
:100B60004CB10D46606818B1294601F091FB10B1F7
:100B70002468002CF6D1204638BD00BF30B5164B96
:100B8000164C87B0CDE9044390F900400D4602921F
:100B90000191E4B1124A01E09C4214D012F9013BE8
:100BA000002BF9D190F900207B2A10D1012429468D
:100BB000C5E90033AB6004AA0394FFF70BFE30B124
:100BC000284607B030BD10F9014F002CE2D10025B6
:100BD000284607B030BD00BF3107000025070000E0
:100BE0000028000070B5ADF5A06D0D4640226946A5
:100BF0000068FFF7C3FF002800F0A38052490446B5
:100C0000FFF7ACFF002800F09C80037C022B40F033
:100C100098804E49806801F03BFB002840F09180AD
:100C200020464B49FFF79AFF0446002800F08980D0
:100C3000037C002B40F085804649FFF78FFF8068DA
:100C400001F0F2FAA0F57A63B3F57A7F98BF2860D5
:100C5000414920468CBF6FF001060126FFF77EFF59
:100C6000806801F0E1FA40F6B833A0F5FA629A42E2
:100C700098BF68603949204688BF6FF00106FFF7CA
:100C80006DFF806801F0D0FA052898BFA86034494C
:100C9000204688BF6FF00106FFF760FF806801F013
:100CA000C3FA642898BFE8602E49204688BF6FF0D9
:100CB0000106FFF753FF806801F0B6FA41F288326F
:100CC000A0F56A53183B934298BF286126492046F5
:100CD00088BF6FF00106FFF741FF806801F0A4FABA
:100CE00042F21072A0F54343503B934298BF6861B3
:100CF0001E49204688BF6FF00106FFF72FFF80686E
:100D000001F092FA44F62062A0F58833A3F5B87397
:100D1000934298BFA8611649204688BF6FF001062C
:100D2000FFF71CFF806801F07FFAA0F5FA63B3F5C6
:100D3000FA6F8CBF6FF00106E86130460DF5A06DCB
:100D400070BD4FF0FF36F8E79C2800002428000013
:100D50003028000038280000402800004828000003
:100D60005428000060280000682800007028000057
:100D7000782800000B4610B5044600211846FFF7FE
:100D8000CDFB012C18D0631C10D00234034607D0D1
:100D90001846FFF7E3FBFFF76BFC0023037010BD61
:100DA000084A0949FFF7EEFB0346F1E7074A0649FF
:100DB000FFF7E8FB0346EBE7054A0349FFF7E2FBD1
:100DC0000346E5E7A42800008C28000098280000CE
:100DD000842800000378032B06D8DFE803F00E0216
:100DE0000A060122074B1A7070470122064B1A703F
:100DF00070470122054B1A7070470122044B1A708C
:100E0000704700BF000300200303002002030020FE
:100E10000103002010B584B069460C4800F09AF830
:100E200088B9039B0A4C1A680198A2605A6809495C
:100E3000E2609A68C3680548C4E9002300F0A4F999
:100E4000204604B010BD002004B010BD24030020D3
:100E5000F00200202429000008B5864678B110462B
:100E60001A46DEF808308C468B4208D8DEF80C3083
:100E700094449C4503D801F015FA002008BD4FF0BA
:100E8000FF3008BD48B330B50D461446036883B043
:100E900072B6B2FBF3F203FB12431148002B18BFEA
:100EA000013200F001FB844698B962B60C48224634
:100EB00029460DF107038DF807C000F043FC48B93F
:100EC0009DF8070001284FF0FF3018BF002003B045
:100ED00030BD62B64FF0FF30F9E74FF0FF3070479A
:100EE0002403002058B3F8B5154600AF1A460E4645
:100EF0001C46FFF7C7FF00281EDB72B611482346C9
:100F00003246294600F08AFBA8B9E31D23F0070307
:100F1000ADEB030D22463146684601F0C3F962B6D7
:100F200022462946684601F083F9003818BF01209F
:100F30004042BD46F8BD62B64FF0FF30F9E74FF0D2
:100F4000FF3070472403002008B5FFF7A3F9002005
:100F500008BD00BF0B46084A10B492E80300074CD6
:100F600003F1080283E8030094E8030082E8030029
:100F700000205DF8044B7047102A0000F82900009B
:100F8000F0B501240025374A80F83450364B82F8FA
:100F900016440146106A1B68146AC0F3026203FA21
:100FA00002F2324EC0F30270C4F30264C240A340A6
:100FB000B24223FA04F351D92D4803F5742302F504
:100FC000742203F23F2302F23F22A0FB0343A0FB63
:100FD0000202284C920C02F5F052A4F8E42043F6E9
:100FE000B85C44F250642846542540F6D866224F37
:100FF0009B0C03FB07F7214A03FB04F4A2FB07E762
:10100000BF088F610CFB03F7A2FB077CA2FB0474F3
:1010100003FB05F5A4084C62194CA2FB057503FB04
:1010200004F4AD084D61A2FB045403FB06F6A408CA
:101030000C62144CA2FB06764FEA9C0704FB03FCEF
:101040005B00A2FB0343A2FB0C2C9B08B6080B61C0
:101050004FEA9C03CE608F60CB61F0BD4FF4FB7014
:10106000F0BD00BF00E0014044050020FF083D0046
:1010700083DE1B4300E07F4038AF0400ABAAAAAA7E
:1010800080DE0F00A0F7030030B5C36B83B00446C9
:101090000A466D468BB193E8030085E803001A7099
:1010A000226C18465A60A36B9847E36B1BB195E816
:1010B000030083E8030003B030BD2B46EFE700BF19
:1010C00030B482B081B9012443682C4D93F91130BA
:1010D0005A0903F01F03203204FA03F345F82230C3
:1010E000BFF34F8FBFF36F8FE8234FF0020CC26A3C
:1010F000234D244C22632B7085F800C0836A02695B
:101100001B8801922B8003E0019B5A1E019293B130
:10111000D4F880305B05F7D4C26A836A0232C262B7
:10112000026B0233013ABCF1010F8362026306D005
:101130004FF0010CE3E7142002B030BC7047D0221E
:101140000F4B1A7069B1D4F880301A0414D40D4AC8
:1011500001E00029EFD0D2F8803001391B04F8D526
:101160000AE0436893F91130044903F01F005A095B
:101170000CFA00F041F822000020DDE700E100E079
:1011800000007E4000E07F402DE9F04141600B7897
:10119000044653B9324A137613752046FFF7F0FE22
:1011A00008B9304B2360BDE8F081002701204B686F
:1011B000DFF8ACE0A363CB68E76323648EF8180024
:1011C0000A7C91F91130284EDFF8A4C01201274D96
:1011D00006EB0308D2B288F800234CF8234003F151
:1011E000C00255F8228067F3104845F8228055F870
:1011F0002220BFF35F8F5A09920003F01F0302F110
:10120000604200FA03F302F56142C2F880311360D4
:1012100098238EF814308B7C91F913201B01DBB2DC
:10122000164486F800334CF8224002F1C00355F80A
:10123000231067F3104145F8231055F82330BFF30E
:101240005F8F53099B0002F01F0203F1604300FA15
:1012500002F203F56143C3F880211A609DE700BFE5
:1012600000E07F404E45504F00E100E0006000404C
:10127000B80300204FF4964310B483B00193436841
:101280001A7802BB4AF680232B4AA2F88430B2F8BF
:1012900084309BB2802B08D110E0019B013B01936D
:1012A000B2F884309BB2802B08D0019B002BF4D184
:1012B0004FF4FA7003B05DF8044B7047002003B0A0
:1012C0005DF8044B704793F911301C4A03F1C001DB
:1012D00052F8214024F4803442F8214052F8211081
:1012E000BFF35F8F012103F01F045B099B0003F133
:1012F000604303F5614301FA04F4C3F880411C60C4
:10130000436893F9130000F1C00352F8234024F41A
:10131000803442F8234052F82330BFF35F8F4309F3
:101320009B0000F01F0003F16043814003F561431F
:10133000C3F880111960A5E700E07F40006000401D
:1013400030B5436804461A7883B0F2B1012293F9AC
:1013500011305148590903F01F03203102FA03F3F9
:1013600040F82130BFF34F8FBFF36F8F636893F95D
:101370001330590903F01F039A4001F1200340F88C
:101380002320BFF34F8FBFF36F8F444BB3F88430EC
:101390009BB2002B7AD04FF49640B321404B3F4A8A
:1013A00001901970D2F880301D040CD406E0019B26
:1013B000013B0193D2F88030180404D4019B002B28
:1013C000F5D1142007E0354B40F2F5101B7C13F0EB
:1013D000100F08BF002050214FF49645304B2F4A84
:1013E00000951970D2F8803019040DD406E0009BE6
:1013F000013B0093D2F880301B0405D4009B002BE6
:10140000F5D14FF0140E08E0244B40F2F51E1B7C82
:1014100013F0100F08BF4FF0000E4FF42A431F497E
:10142000002818BF8646B1F884C0A1F88430B1F80E
:1014300084301FFA8CFC9BB263B300204FF49642B9
:10144000B1F88430002A9BB208BF4FF4FA70013A19
:10145000002BF5D1BCF1010F07D000239E4518BF2A
:10146000704684F8343003B030BD4DF601120B4B9A
:10147000A3F844200B4AA2F804C1B2F804319BB28D
:10148000002BFAD10123A2F80031E6E72046FFF74E
:10149000F1FE80E71846DDE700E100E000E07F4074
:1014A00000007E4000C0014000232DE9F04321F000
:1014B0003F0183B080F83430816202630446FFF755
:1014C000D9FE002840F08E80636884461B78002B8C
:1014D00055D1676A01234FF020084FF0D00E4C49D8
:1014E0004C4EA1F8E030A56A0D6386F8008086F8BE
:1014F00000E0A56A236B403503F1FF39A562C4F80B
:10150000309067B1D1F880301B0408D43B4601E02D
:10151000002B65D0D1F88020013B1004F8D50020C5
:101520006268137843BB0A7CD20649D4D1F8803074
:101530009B0429D4002851D1B9F1000FD4D14FF424
:101540002A433349B1F88440A1F88430B1F884309B
:10155000A4B29BB25BB14FF49642B1F88430002A3A
:101560009BB208BF4FF4FA7C013A002BF5D1012C55
:101570003DD0002808BF604603B0BDE8F0830223D9
:10158000074684F83430A5E740BB1920B3214FF457
:101590009644204B1E4A01941970D2F880301904E9
:1015A00007D50AE0019B013B0193D2F880301B0470
:1015B00003D4019B002BF5D1C1E7154B1B7CBEE783
:1015C000D1F88020550401D50A7C0B74D1F8803005
:1015D0009C04D9D410B940F2F510D7E71420D5E710
:1015E00014209DE74FF4FA7003B0BDE8F0834DF688
:1015F0000111074B084AA3F84410A2F80441B2F8BD
:1016000004319BB2002BFAD10123A2F80031B0E7DC
:1016100000E07F4000007E4000C00140F0B50025A2
:101620005B0880F83450C0E90A1283B003630446B3
:10163000FFF720FE0546002835D163681B78002B94
:1016400034D1E7683C4E39462046FFF739FD6368E0
:101650001B78002B5BD1327CD20649D4D6F880307F
:10166000DB0428D450BB206B0028ECD14FF42A4374
:101670003149B1F88440A1F88430B1F88430A4B283
:101680009BB25BB14FF49642B1F88430002A9BB212
:1016900008BF4FF4FA75013A002BF5D1012C3AD06E
:1016A000002818BF0546284603B0F0BD01230746B1
:1016B00084F83430C6E7002808BF1820B3214FF45F
:1016C00096441E4B1C4A01941970D2F880301904BC
:1016D0000BD406E0019B013B0193D2F880301B0440
:1016E00003D4019B002BF5D1C0E7134B1B7CBDE756
:1016F000D6F88020570401D5327C3374D6F8803078
:10170000DC04D8D40028D9D140F2F510D6E705463C
:10171000284603B0F0BD4DF60111074B084AA3F867
:101720004410A2F80441B2F804319BB2002BFAD164
:101730000123A2F80031B3E700E07F4000007E40C3
:1017400000C001402DE9F04182B080460F461646A8
:101750001D46FFF78FFD00284FD14FF0710CD021AF
:101760005A4C5B4A731E3B4484F8D0002763636382
:1017700082F800C01170D8F804301B78002B3FD1DC
:10178000D4F88030D8F81410B6081F0406FB0116F0
:101790007CD416B984E0002E3AD0D4F88010013EF3
:1017A0000F04F8D5237CDA0667D40026D4F88030FD
:1017B00046494FF42A4291F8D430A3F10103B3FA19
:1017C00083F35B092B70B1F88440A1F88420B1F851
:1017D0008430A4B29BB25BB14FF49642B1F884302E
:1017E000002A9BB208BF4FF4FA70013A002BF5D1E2
:1017F000012C31D0002E18BF304602B0BDE8F08178
:101800000322022388F834202B7002B0BDE8F08157
:10181000237CDB0605D5D4F880305A0401D5237C1F
:101820002674D4F8803014264FF49644B322284B03
:10183000264901941A70D1F880301F0409D4019B05
:10184000002BB5D0019A013A0192D1F880301C04E6
:10185000F5D51E4B1B7CABE74DF601111B4B1D4A0A
:10186000A3F84410A2F80441B2F804319BB2002B53
:10187000FAD10123A2F80031BCE7D4F880305B0430
:1018800015D4D4F8803040F2F516CDE7237CD90684
:101890008BD5D4F880305904F3D5237C2074F0E73D
:1018A000237CDA0609D4094BD3F88030BBE7002348
:1018B000227C2374D4F88030E5E7D4F880305B04D0
:1018C000F1D5237C2074D4F88030ACE700E07F4071
:1018D00000007E4000C0014070B5EFF3038317495C
:1018E00017480A7C103B5CB250F824501007D1F81E
:1018F00080100AD4D3B21A061CD4DB061CD511F40E
:10190000405F14BF0726062600E004262846FFF79E
:1019100017FD0C4A04F1C00352F8230020F4803074
:1019200042F8230052F8233031462846BDE8704083
:10193000FFF7AABB0526E9E70726E7E700E07F40B7
:10194000B80300200060004010B5EFF30383103BA4
:10195000324A5BB203F1C00152F82100304C20F44E
:10196000803054F8234042F8210052F8213094F896
:101970003410012932D002291DD02A4B93F8D430DB
:10198000012B14BF022103214FF42A43254AB2F848
:101990008400A2F8843080B2B2F884309BB2002B6D
:1019A000FAD1012828D0002384F834302046BDE83D
:1019B0001040FFF769BB216B0029E5D0D022202120
:1019C000A06A184B1863A3F5F03319701A70A26A55
:1019D000236B4032013BA262236310BD236B002BBB
:1019E000D2D000212046FFF76BFB0028F5D020461F
:1019F000BDE81040FFF7A4BC4DF6011C094B0A4A94
:101A0000A3F844C0A2F80401B2F804319BB2002B41
:101A1000FAD10123A2F80031C5E700BF0060004001
:101A2000B803002000E07F4000C0014030B4057BD7
:101A3000846895B104F10C02117801F0010113786A
:101A4000C3F340038B42FAD143681978012907D0C8
:101A5000F1231370002030BC704704F10802EBE75B
:101A60000169187C084B43F8201001392DB1F1238E
:101A700021601370002030BC7047F12389B22180AF
:101A80001370002030BC704768030020002370B43E
:101A9000037341600A7C0446120202F1804202F59F
:101AA00068228260EFF31085012383F31088087C9D
:101AB00003287DD8C0F103008340DB434448C66857
:101AC0000C30334003600E7C4248434B032E98BFDA
:101AD00003461B6885F3108800231372137AC3F33F
:101AE00040009B07FAD49072227BA3680D7AC869E4
:101AF000002A5BD00C33C278067802F00702007926
:101B0000002E4CD1002D5BD11871002098715A70B5
:101B10009D704B6860682361304A007C42F8203039
:101B2000227B013B002A36D0A268136091F9123063
:101B3000002B26DB4A7C03F160401201D2B200F593
:101B4000614080F800232648264A40F8234003F1EC
:101B5000C00052F8205025F4803542F8205052F849
:101B60002020BFF35F8F01205A09920003F01F036A
:101B700002F1604202F5614200FA03F3C2F88031DB
:101B8000136000204B69184A63618B692260C4E9C5
:101B9000060370BC7047A2689BB21380C6E7502E44
:101BA00006BF002542F050023243ADE70833A2E7FA
:101BB000C0F1130083400648DB430669103080E71C
:101BC00085F0020542EA0512D2B235469CE700BF15
:101BD000004008400C4008401040084068030020C6
:101BE000B80300200060004054474100F0B585B0C4
:101BF000EFF30383103B204A5BB203F1C00152F8BC
:101C0000210020F4803042F8210052F821201B4AA4
:101C100052F82340237BA56853B30C3562682B78B8
:101C20001278DBB2012A04D1F42203F0F0032A7007
:101C30002B706269B2B1A66901AFDEB196E8070008
:101C400087E807009B0644BF00233371E3693046F1
:101C5000336063699847A3691BB197E8070083E87D
:101C600007002B78DBB203F00F032B7005B0F0BD3B
:101C70000835D3E73E46E5E700600040B8030020A2
:101C8000064B074993F826001A6A51F82030C2F330
:101C900002620449D3400B60704700BF00E001407E
:101CA0007C020020440500204AF20350012325490C
:101CB000254AF0B5A1F8FE03A2F80431B2F80431C8
:101CC0009BB2002BFAD14FF4004401201F49204D54
:101CD0008C6004F19874C1E9033304F52D44A2F833
:101CE00000010C60174A1B4C4D6192F826504C6065
:101CF000146A82F8800482F8363092F83C30DB07B0
:101D0000FBD5002043F2121CF126F0254FF4254E9E
:101D1000114CA2F828C082F82A00146282F826002A
:101D200092F826400D4B51F82410146A0C4FC4F35E
:101D3000026C21FA0CF139601E7318721D73A2F83F
:101D4000FEE3F0BD00E0014000C001407C02002045
:101D5000AA21EF0900127A0021120221002000407E
:101D60004405002010B50024064B012083F82840CC
:101D700000F0E0F8044B012083F8BB44BDE81040BC
:101D800000F0A8B80030084000E00140704700BFF4
:101D9000A0F101000028FBD1704700BF4FF47A7317
:101DA00010B400FB01F1114C114A2468B2FBF4F2AB
:101DB000A1FB03043CB9B0FBF2F0800860B15DF810
:101DC000044BFFF7E5BF9200B1FBF2F1A1FB031357
:101DD0002BB908460028F2D15DF8044B70474FF04C
:101DE000FF3C5DF8044B6046FFF7D2BF440500207E
:101DF00000CA9A3B70B500240B4B0C4EB3F820215F
:101E0000B3F84051ADB2154025FA04F3DB0704D511
:101E100056F82430E0B203B1984701340E2CF3D1C8
:101E2000014BA3F8305170BD0060004080030020DA
:101E300030B5032085B000F07DF86FF0FF054FF05E
:101E4000FF31204C002322464FF0010E1E488564CE
:101E5000CDE90111039104F1C00532F8020F5909CF
:101E600060B104A800EB810151F80C0C03F01F0CC9
:101E70000EFA0CFC20EA0C0041F80C0C954203F120
:101E80000103EAD10199114B0F4A03201167C3F8EE
:101E9000801202995167C3F8841203999167C3F8BD
:101EA000881200F017F80023094834F8022F03F1D4
:101EB000C00101330AB140F82120A542F5D105B097
:101EC00030BD00BF362900000080004000E100E086
:101ED00000600040EFF31081012383F31088124B60
:101EE00033F8102092B22AB133F81020013A92B29E
:101EF00023F8102033F810309BB293B910B40B4A7A
:101F00000B4CB2F8FE3334F810009BB243F4254377
:101F100023EA0003A2F8FE3381F310885DF8044B36
:101F2000704781F3108870473805002000E00140B9
:101F3000382A000030B4EFF31081012383F31088B6
:101F40000E4A32F810309BB26BB90D4C0D4DB4F8FF
:101F5000FE3335F810C09BB243EA0C0343F425432B
:101F60009BB2A4F8FE3332F8103001339BB222F852
:101F7000103081F3108830BC704700BF3805002056
:101F800000E00140382A000008B50C4A03461068FA
:101F900040B103330A4923F0030303448B4205D8BD
:101FA000136008BD074908461160F2E700F068F9C0
:101FB0000C2203461A604FF0FF3008BD4005002098
:101FC000903600209006002000BE704708B500F053
:101FD00005F8FEF7B9FFFEE7704700BF4FF4700247
:101FE00070B52B4B2B4CC3F8882000209C60FFF76A
:101FF000F3FFFFF759FE0120FFF7EEFF2368A3F57B
:10200000805383F30A882448244A0021121A00F0DE
:102010001FF92348234A2449121A00F043F9234D9B
:10202000234B5B1B002B07DD00249E1055F8043B5F
:1020300001349847A642F9DCFFF722FEFFF792FE33
:102040000320FFF777FF4FF6FF720024194B0320A0
:102050001A825A829A82DA821A835A839A83DA839C
:10206000FFF738FF0320FFF765FF134B03205C6089
:102070009C60DC601C61FFF72DFF0220FFF7ACFFC6
:10208000FFF7D6FE2046BDE87040FFF77FBE00BFD9
:1020900000ED00E000000000980200209006002003
:1020A000000000207C020020702B00007402002041
:1020B00078020020000D084000000E40024B01464F
:1020C000186800F025B800BF2402002070B50F4E3C
:1020D0000C460546316811B900F0C2F8306021465F
:1020E000284600F0BDF8431C03D14FF0FF342046D2
:1020F00070BDC41C24F00304A042F8D0211A284665
:1021000000F0AEF80130F2D1EFE700BF4805002043
:102110002DE9F843CD1C064625F0030508350C2DA6
:1021200038BF0C25002D01DBA94204D90C233360F4
:102130000020BDE8F883DFF8D48000F069F8D8F813
:1021400000301C4644BB29463046FFF7BFFF431C06
:10215000044658D1D8F800402746002F43D1002C20
:102160004BD023683946304604EB030900F078F879
:10217000814542D1216830466D1A2946FFF7A6FFF6
:1021800001303AD023682B442360D8F800305A68D5
:1021900062BBC8F800700FE02268521B20D40B2AE3
:1021A00017D96119A342256018BF5960636808BF39
:1021B000C8F8001062514B60304600F02FF804F16F
:1021C0000B00231D20F00700C21A1CBF1B1AA350CE
:1021D000AFE76268A3420CBFC8F800205A60EBE783
:1021E00023466468AEE73C467F68B6E71A465B68FC
:1021F000A342FBD100235360DEE70C23304633605B
:1022000000F00CF894E70560D6E700BF4C0500200D
:10221000014800F03BB800BF8C060020014800F0E8
:1022200036B800BF8C0600200A22002100F0D6B884
:102230000139024410B5904201D1002005E0037835
:1022400011F8014FA34201D0181B10BD0130F2E775
:1022500002440346934200D1704703F8011BF9E79B
:1022600038B50023054D044608462B60FFF78CFE69
:10227000431C02D12B6803B1236038BD88060020BF
:10228000014B1868704700BF240200207047704758
:1022900010F8012B11F8013B012A28BF9A42F7D010
:1022A000D01A70470A44431E914200D1704710B5BE
:1022B00011F8014B914203F8014FF9D110BDFFFF16
:1022C0002DE9F04F904685B089461E460D46424A9C
:1022D00002902B4615F8014B175D17F00807F8D14F
:1022E0002D2C10D12C7801279D1C36F0100315D110
:1022F000302C0DD12B7803F0DF03582B08D16C78EC
:10230000023510260AE02B2C04BF2C789D1CECE72C
:10231000002EF6D1302C14BF0A26082607F1004AF9
:1023200007F1FF3BF31732460AF1FF3A5846039391
:10233000514600F05DF8019200228E468446114617
:102340001046A4F13003092B05D9A4F14103192B40
:102350001ED8A4F137039E4224DD541C15D08445B9
:102360007EEB01021BD38E4508BF844502D1019A42
:102370009A4214DB039A714300FB0211A6FB000290
:102380000A44181842EBE371012215F8014BD8E713
:10239000A4F16103192B05D8A4F15703DBE74FF033
:1023A000FF32F2E7531C0AD12223029A58465146C3
:1023B0001360B8F1000F0AD105B0BDE8F08F17B176
:1023C000404261EB4101B8F1000FF5D00AB105F1CF
:1023D000FF39C8F80090EFE7412A000013460A468B
:1023E000014602480068FFF76BBF00BF24020020CF
:1023F00053B94AB9002908BF00281CBF4FF0FF316C
:102400004FF0FF3000F08CB9ADF1080C6DE904CE4F
:1024100000F006F8DDF804E0DDE9022304B07047BF
:102420002DE9F04F099D0E4604460F46002B47D17B
:102430008A429446B2FA82F35AD943B102FA03FCB3
:10244000C3F120029F409C4020FA02F217434FEA5A
:102450001C461FFA8CFE220CB7FBF6F106FB117727
:1024600001FB0EF042EA0742904208D91CEB02023F
:1024700001F1FF3702D2904200F23C813946121A34
:10248000A4B2B2FBF6F006FB102200FB0EFE44EAFB
:102490000244A64508D91CEB040400F1FF3202D225
:1024A000A64500F22A81104640EA0140A4EB0E0442
:1024B00000211DB1DC400023C5E90043BDE8F08FD9
:1024C0008B4205D90DB1C5E9000100210846F5E7A9
:1024D000B3FA83F100294FD1B342C0F002818242A6
:1024E00040F2FF800846002DE8D0C5E90047E5E747
:1024F000002B40F0AF808A1A4FEA1C4E1FFA8CF76F
:102500000121B2FBFEF60EFB1620220C42EA00422D
:1025100007FB06F090420FD91CEB020206F1FF38D0
:102520002CBF4FF001094FF00009904203D9B9F1D7
:10253000000F00F0DC804646121AA4B2B2FBFEF097
:102540000EFB102200FB07F744EA0244A7420FD912
:102550001CEB040400F1FF322CBF4FF0010E4FF0D2
:10256000000EA74203D9BEF1000F00F0C98010464B
:10257000E41B40EA06409CE7C1F120048B4006FAC8
:1025800001FC00FA01FE22FA04F7E6408A401F43EC
:1025900020FA04F34FEA174843EA0C031FFA87FCBA
:1025A0004FEA1349B6FBF8F008FB106649EA064605
:1025B00000FB0CF9B1450ED9BE1900F1FF3A2CBF52
:1025C0004FF0010B4FF0000BB14503D9BBF1000FE9
:1025D00000F0A2805046A6EB09061FFA83F9B6FB6D
:1025E000F8F308FB136603FB0CFC49EA0646B44506
:1025F0000ED9BE1903F1FF382CBF4FF001094FF07F
:102600000009B44503D9B9F1000F00F082804346B8
:1026100043EA0040A6EB0C06A0FB028C664543464D
:10262000E14602D307D1C64505D2B8EB02036CEBF5
:10263000070C0138E1465DB1BEEB030266EB09060B
:1026400006FA04F422FA01F3CE401C43C5E9004621
:10265000002133E702FA03FCC3F1200299409C40B9
:10266000D6404FEA1C4E20FA02F21FFA8CF7B6FB56
:10267000FEF00A430EFB1066110C41EA064100FB16
:1026800007F68E420ED91CEB010100F1FF382CBF7A
:102690004FF001094FF000098E4202D9B9F1000F45
:1026A00034D04046891B92B2B1FBFEF60EFB1611E8
:1026B00042EA014206FB07F191420ED91CEB0202ED
:1026C00006F1FF382CBF4FF001094FF0000991428D
:1026D00002D9B9F1000F16D04646521A46EA004117
:1026E0000FE7841A66EB030201201746FBE6023E61
:1026F000624421E702396244C1E664440238D3E609
:102700006444023834E7023E6244E6E7023861443A
:10271000C8E7023B3E447BE702383E445BE700BF2C
:10272000704700BF4275696C7420776974682052E5
:10273000656E6573617320416476616E63656420C4
:10274000466C657869626C6520536F667477617258
:1027500065205061636B6167652076657273696F90
:102760006E20352E352E3000352E352E30000000EF
:1027700000000505F8B500BFF8BC08BC9E467047D0
:10278000F8B500BFF8BC08BC9E4670477B202022ED
:1027900074797065223A20225345545F434F4E4668
:1027A0004947222C20202264617461223A207B2038
:1027B00020202022636F765F6D76223A20343630F7
:1027C000302C20202020226375765F6D76223A20FF
:1027D0003330303020200000223A7B007D2C000076
:1027E000223A2200222C0000000000003031323357
:1027F00034353637383941424344454600000000FD
:10280000200A0D090C0000007D5D000074727565E2
:102810000000000066616C73650000006E756C6CF2
:10282000000000005345545F434F4E4649470000A7
:102830006461746100000000636F765F6D76000074
:102840006375765F6D7600007574645F6465675FBD
:10285000630000006F74645F6465675F630000007D
:102860006F63635F6D6100006F63645F6D610000A3
:102870007363645F6D6100006465626F7563655FBB
:102880006D73000073756363657373006572725FC7
:1028900073746174757300006572725F747970652A
:1028A000000000006572725F76616C756500FFFF65
:1028B00022225C5C2F2F6208660C6E0A720D74096E
:1028C00039323233333732303336383534373735BF
:1028D000383037002D3932323333373230333638EF
:1028E000353437373538303800FFFFFF22225C5C43
:1028F0002F2F6208660C6E0A720D7409000000002A
:102900008813000000000000C4090000000000005F
:102910002D030000000000001C2900000000000141
:102920000000000100000000D50D000000000000C4
:10293000000000000B010B024000310030000000DD
:102940000000000000000000000000000000000087
:102950000000000000000000000000000000000077
:102960000000000000000000000000000000000067
:102970000000000000000000000000000000000057
:102980000000000000000000000000000000000047
:102990000000000000000000000000000000000037
:1029A0000000000000000000000000000000000027
:1029B0000000000000000000000000000000000017
:1029C0000000000000000000000000000000000007
:1029D00000000000000000000000000000000000F7
:1029E00000000000000000000000000000000000E7
:1029F000000000000000000001000000002A0000AC
:102A000000000008FF1F0008400000000400000054
:102A100002000000182A000000000000FFFF000074
:102A2000002000008000000000000100FFFF030004
:102A3000008000008000000001000200080010007B
:102A4000002020202020202020202828282828207E
:102A50002020202020202020202020202020202076
:102A600020881010101010101010101010101010DE
:102A700010040404040404040404041010101010CE
:102A80001010414141414141010101010101010198
:102A900001010101010101010101010110101010EA
:102AA000101042424242424202020202020202026A
:102AB00002020202020202020202020210101010BE
:102AC00020000000000000000000000000000000E6
:102AD00000000000000000000000000000000000F6
:102AE00000000000000000000000000000000000E6
:102AF00000000000000000000000000000000000D6
:102B000000000000000000000000000000000000C5
:102B100000000000000000000000000000000000B5
:102B200000000000000000000000000000000000A5
:102B30000000000000000000000000000000000095
:102B400000FFFFFF1000000000000000017A5200AB
:102B5000027C0E011B0C0D0010000000180000008C
:102B60000000000010000000000000000000000055
:102B700068100000B80B00000000000041000000D9
:102B8000384A0000D8D6000080380100B80B000099
:102B90002400002000002110422063308440A55012
:102BA000C660E770088129914AA16BB18CC1ADD193
:102BB000CEE1EFF13112100273325222B55294423B
:102BC000F772D662399318837BB35AA3BDD39CC3E3
:102BD000FFF3DEE36224433420040114E664C77487
:102BE000A44485546AA54BB528850995EEE5CFF533
:102BF000ACC58DD55336722611163006D776F666DB
:102C00009556B4465BB77AA719973887DFF7FEE782
:102C10009DD7BCC7C448E5588668A77840086118A6
:102C200002282338CCC9EDD98EE9AFF948896999D2
:102C30000AA92BB9F55AD44AB77A966A711A500A7A
:102C4000333A122AFDDBDCCBBFFB9EEB799B588B22
:102C50003BBB1AABA66C877CE44CC55C222C033CC6
:102C6000600C411CAEED8FFDECCDCDDD2AAD0BBD72
:102C7000688D499D977EB66ED55EF44E133E322E1A
:102C8000511E700E9FFFBEEFDDDFFCCF1BBF3AAFC2
:102C9000599F788F8891A981CAB1EBA10CD12DC120
:102CA0004EF16FE18010A100C230E32004502540B6
:102CB00046706760B9839893FBA3DAB33DC31CD316
:102CC0007FE35EF3B1029012F322D2323542145206
:102CD00077625672EAB5CBA5A89589856EF54FE562
:102CE0002CD50DC5E234C324A01481046674476456
:102CF00024540544DBA7FAB79987B8975FE77EF7B6
:102D00001DC73CD7D326F2369106B01657667676A5
:102D1000154634564CD96DC90EF92FE9C899E98981
:102D20008AB9ABA94458654806782768C018E108F5
:102D30008238A3287DCB5CDB3FEB1EFBF98BD89B55
:102D4000BBAB9ABB754A545A376A167AF10AD01A45
:102D5000B32A923A2EFD0FED6CDD4DCDAABD8BADA1
:102D6000E89DC98D267C076C645C454CA23C832C95
:102D7000E01CC10C1FEF3EFF5DCF7CDF9BAFBABFF5
:102D8000D98FF89F176E367E554E745E932EB23EE5
:102D9000D10EF01E28020020000000005005002087
:102DA000B805002020060020000000000000000000
:102DB0000000000000000000000000000000000013
:102DC0000000000000000000000000000000000003
:102DD00000000000000000000000000000000000F3
:0C2DE000000000002D02000005020000B1
:020000040100F9
:10A10000FFFFFFFFFFFFFFFFFFFFFFFFFFFFFFFF5F
:04A13400FFFFFFFF2B
:10A20000FFFDFFFFFFFFFFFFFFFFFFFFFFFFFFFF60
:10A21000FFFFFFFFFFFFFFFFFFFFFFFFFFFFFFFF4E
:10A22000FFFFFFFFFFFFFFFFFFFFFFFFFFFFFFFF3E
:10A23000FFFFFFFFFFFFFFFFFFFFFFFFFFFFFFFF2E
:10A24000FFFFFFFFFFFFFFFFFFFFFFFFFFFFFFFF1E
:10A25000FFFFFFFFFFFFFFFFFFFFFFFFFFFFFFFF0E
:10A26000FFFFFFFFFFFFFFFFFFFFFFFFFFFFFFFFFE
:10A27000FFFFFFFFFFFFFFFFFFFFFFFFFFFFFFFFEE
:10A28000F8F8FFFFFFFFFFFFFFFFFFFFFFFFFFFFEC
:10A29000FFFFFFFFFFFFFFFFFFFFFFFFFFFFFFFFCE
:10A2A000FFFFFFFFFFFFFFFFFFFFFFFFFFFFFFFFBE
:10A2B000FFFFFFFFFFFFFFFFFFFFFFFFFFFFFFFFAE
:10A2C000FFFFFFFFFFFFFFFFFFFFFFFFFFFFFFFF9E
:0400000300001FCD0D
:00000001FF
