S0160000496E7465727570745F54696D65722E7372656353
S315000000005006002031080000A10600002D0800005F
S315000000102D0800002D0800002D0800002D08000006
S315000000200000000000000000000000002D08000095
S315000000302D080000000000002D0800002D0800001B
S31500000040690400000000000000000000000000003D
S31500000050000000000000000000000000000000009A
S31500000060000000000000000000000000000000008A
S31500000070000000000000000000000000000000007A
S31500000080000000000000000000000000000000006A
S31500000090000000000000000000000000000000005A
S315000000A0000000000000000000000000000000004A
S315000000B0000000000000000000000000000000003A
S315000000C0000000000000000000000000000000002A
S315000000D0000000000000000000000000000000001A
S315000000E0000000000000000000000000000000000A
S315000000F000000000000000000000000000000000FA
S3150000010000000000000000000000000000000000E9
S3150000011000000000000000000000000000000000D9
S3150000012000000000000000000000000000000000C9
S3150000013000000000000000000000000000000000B9
S3150000014000000000000000000000000000000000A9
S315000001500000000000000000000000000000000099
S315000001600000000000000000000000000000000089
S315000001700000000000000000000000000000000079
S315000001800000000000000000000000000000000069
S315000001900000000000000000000000000000000059
S315000001A00000000000000000000000000000000049
S315000001B00000000000000000000000000000000039
S315000001C0FFFFFFFFFFFFFFFFFFFFFFFFFFFFFFFF39
S315000001D0FFFFFFFFFFFFFFFFFFFFFFFFFFFFFFFF29
S315000001E0FFFFFFFFFFFFFFFFFFFFFFFFFFFFFFFF19
S315000001F0FFFFFFFFFFFFFFFFFFFFFFFFFFFFFFFF09
S315000002000348044B834202D0034B03B1184770479F
S31500000210080000200800002000000000064B0749E7
S31500000220C91A891048BF0131491003D0044B0BB1DC
S3150000023001481847704700BF08000020080000204A
S315000002400000000010B5064C237843B9FFF7D8FF2D
S31500000250044B13B10448AFF300800123237010BD93
S315000002602800002000000000840A000008B5054BA5
S315000002701BB105490548AFF30080BDE80840FFF70C
S31500000280CDBF00BF000000002C000020840A000043
S3150000029010B4054CD4E90023501C43F10001C4E915
S315000002A000015DF8044B70474800002008B572B69F
S315000002B00449054800F02EF8034800F00DF862B630
S315000002C0FEE700BF940900005000002008B5FFF7C4
S315000002D0EDFF002008BD00BF8268117A01F0010120
S315000002E0137AC3F340039942FAD141680B78012B84
S315000002F009D1C36891F810C0054941F82C30013B7B
S315000003009BB213808268F12300201372704700BFEE
S315000003106C0000200B7C70B503F5800303F5686361
S315000003201B02024641608360EFF31084012383F3CE
S315000003301088087C032879D8C0F103008340DB438A
S31500000340424D4348ED682B4003600D7C4048414BCD
S31500000350032D98BF03461B6884F31088002093681A
S3150000036018729068037AC3F3400C9B07E646F9D4EB
S3150000037080F80AC0C8690C7AC378057890F804C07A
S3150000038003F00703002D4AD1002C57D100259068B1
S3150000039080F80CC0906885739068437293682E4805
S315000003A09C724B685468D360247C40F82430906873
S315000003B0013B9BB2038091F91230AB4226DB487CAD
S315000003C003F160440001254EC0B204F5614484F88F
S315000003D00003234846F8232003F1C00450F82460A4
S315000003E065F3104640F8246050F82400BFF35F8F91
S315000003F001245809800003F01F0300F1604000F556
S31500000400614004FA03F3C0F88031036000204B69B1
S31500000410144C13618B691460C2E9050370BD502D3D
S3150000042006BF744643F050032B43AFE7C0F11300F9
S31500000430064D8340DB4307482D6984E784F00204B8
S3150000044043EA0413DBB22C46A0E700BF0040084095
S315000004500C400840104008406C000020C4000020FA
S31500000460006000405447410070B584B0EFF3038349
S31500000470103B224A5BB203F1C00152F8210020F47E
S31500000480803042F8210052F821201D4A52F82340BC
S31500000490D4E901120978137A0129DBB205D1F421D6
S315000004A01172A26803F0F00313722269FAB165694A
S315000004B001AED5B195E8070086E807009B0644BF64
S315000004C000232B71A36928462B602369984763692B
S315000004D01BB196E8070083E80700A268137ADBB22F
S315000004E003F00F03137204B070BD3546E6E7A26849
S315000004F0DBB203F00F03137204B070BD006000405E
S31500000500C4000020064B074993F826001A6A51F8E2
S315000005102030C2F302620449D3400B60704700BF2B
S3150000052000E00140080000204C020020F8B54AF225
S31500000530035001233649374AA1F8FE03A2F80431D5
S31500000540B2F804319BB2002BFAD14FF400450121D9
S315000005504FF0090C304C314F314E6760314F2C480B
S31500000560E760314F6761A2F800112660A56025613A
S3150000057090F82620056A54F82220C5F30265EA4061
S315000005802A4D2A6080F8133480F8A2C090F880348F
S31500000590002B36D000231E4981F8813481F880343F
S315000005A081F8323091F83C301A07FBD543F202103D
S315000005B00023174A088581F82A3092F83C309B06BA
S315000005C0FBD50120052313494FF0F10C81F81C01DE
S315000005D01749116282F8263092F82630106A54F8CC
S315000005E02310C0F30260C14029600024F0204FF4BC
S315000005F02541104B83F80CC01C721873A2F8FE1329
S31500000600F8BD80F8801440F2C44000F01DF8C1E740
S3150000061000E0014000C001400800002000127A00FE
S31500000620002D310100366E0100C2EB0B4C0200209A
S315000006302112022100200040704700BFA0F10100F6
S315000006400028FBD1704700BF4FF47A7310B400FB4B
S3150000065001F1114C114A2468B2FBF4F2A1FB030428
S315000006603CB9B0FBF2F0800860B15DF8044BFFF7CF
S31500000670E5BF9200B1FBF2F1A1FB03132BB90846CB
S315000006800028F2D15DF8044B70474FF0FF3C5DF84F
S31500000690044B6046FFF7D2BF4C02002000CA9A3BCB
S315000006A070B500240A4B0B4EB3F84051ADB225FA93
S315000006B004F3DB0704D556F82430E0B203B19847BB
S315000006C00134102CF3D1024BA3F8305170BD00BF9A
S315000006D0006000408400002030B56FF0FF0585B053
S315000006E0032000F079F84FF0FF311F4C1F482246D7
S315000006F0856400230125CDE90111039104F1C00EA3
S3150000070032F8020F590960B104A800EB810151F8D3
S315000007100C0C03F01F0C05FA0CFC20EA0C0041F847
S315000007200C0C964503F10103EAD10199104B0F4ACF
S3150000073003201167C3F8801202995167C3F8841227
S3150000074003999167C3F8881200F016F80023094848
S3150000075003F1C00234F8021F0133602B40F8221067
S31500000760F6D105B030BD00BFBA09000000800040D8
S3150000077000E100E000600040EFF31081012383F305
S315000007801088124B33F8102092B22AB133F8102099
S31500000790013A92B223F8102033F810309BB293B985
S315000007A010B40B4A0B4CB2F8FE3334F810009BB26F
S315000007B043F4254323EA0003A2F8FE3381F31088AD
S315000007C05DF8044B704781F310887047440200209F
S315000007D000E001407C0A000030B4EFF310810123F1
S315000007E083F310880E4A32F810309BB26BB90D4C69
S315000007F00D4DB4F8FE3335F810C09BB243EA0C0336
S3150000080043F425439BB2A4F8FE3332F8103001338B
S315000008109BB222F8103081F3108830BC704700BFBD
S315000008204402002000E001407C0A000000BE704740
S3150000083008B500F005F8FFF749FDFEE7704700BF71
S315000008404FF4700270B5244B244CC3F88820002066
S315000008509C60FFF7F3FFFFF769FE0120FFF7EEFF4D
S315000008602368A3F5806383F30A881D481D4A002187
S31500000870121A00F045F81C481C4A1D49121A00F0CD
S3150000088047F81C4D1C4B5B1B002B07DD00249E10FC
S3150000089055F8043B01349847A642F9DCFFF732FECF
S315000008A00320FFF799FF00234FF6FF70134903F16A
S315000008B008020133092B21F81200F8D10320FFF7B3
S315000008C05BFF0220FFF7BAFFFFF706FFBDE87040A7
S315000008D00020FFF7B1BE00BF00ED00E00000000001
S315000008E02800002050020020000000200800002000
S315000008F0B00A00000000002004000020000D08409F
S3150000090002440346934200D1704703F8011BF9E7FE
S315000009100A44431E914200D1704710B511F8014BAD
S31500000920914203F8014FF9D110BDFFFF4275696C82
S315000009307420776974682052656E6573617320410F
S315000009406476616E63656420466C657869626C6581
S3150000095020536F667477617265205061636B6167BF
S31500000960652076657273696F6E20342E322E3000E4
S31500000970342E322E3000000000000204F8B500BF0D
S31500000980F8BC08BC9E467047F8B500BFF8BC08BC6A
S315000009909E4670470000000050C3000000000000A3
S315000009A0A8610000000000009102000000000000A5
S315000009B0B409000000000001000000FF4000000034
S315000009C00000000000000000000000000000000021
S315000009D00000000000000000000000000000000011
S315000009E00000000000000000000000000000000001
S315000009F000000000000000000000000000000000F1
S31500000A0000000000000000000000000000000000E0
S31500000A1000000000000000000000000000000000D0
S31500000A2000000000000000000000000000000000C0
S31500000A3000000000000000000000000000000000B0
S31500000A4000000000000000000000000000000000A0
S31500000A500000000000000000000000000000000090
S31500000A600000000000000000000000000000000080
S31500000A70000000000000000000000000010002006D
S31500000A80080010001000000000000000017A52006B
S31500000A90027C0E011B0C0D00100000001800000067
S31500000AA00000000010000000000000000000000030
S30D00000AB06D0200004502000082
S3150100A100FFFFFFFFFFFFFFFFFFFFFFFFFFFFFFFF58
S3090100A134FFFFFFFF24
S3150100A200FFFDFFFFFFFFFFFFFFFFFFFFFFFFFFFF59
S3150100A210FFFFFFFFFFFFFFFFFFFFFFFFFFFFFFFF47
S3150100A220FFFFFFFFFFFFFFFFFFFFFFFFFFFFFFFF37
S3150100A230FFFFFFFFFFFFFFFFFFFFFFFFFFFFFFFF27
S3150100A240FFFFFFFFFFFFFFFFFFFFFFFFFFFFFFFF17
S3150100A250FFFFFFFFFFFFFFFFFFFFFFFFFFFFFFFF07
S3150100A260FFFFFFFFFFFFFFFFFFFFFFFFFFFFFFFFF7
S3150100A270FFFFFFFFFFFFFFFFFFFFFFFFFFFFFFFFE7
S3150100A280F8F8FFFFFFFFFFFFFFFFFFFFFFFFFFFFE5
S3150100A290FFFFFFFFFFFFFFFFFFFFFFFFFFFFFFFFC7
S3150100A2A0FFFFFFFFFFFFFFFFFFFFFFFFFFFFFFFFB7
S3150100A2B0FFFFFFFFFFFFFFFFFFFFFFFFFFFFFFFFA7
S3150100A2C0FFFFFFFFFFFFFFFFFFFFFFFFFFFFFFFF97
S70500000831C1
