S0160000496E7465727570745F54696D65722E7372656353
S3150000000058440020D5150000FD130000D11500004E
S31500000010D1150000D1150000D1150000D115000042
S31500000020000000000000000000000000D1150000E4
S31500000030D115000000000000D1150000D115000008
S31500000040F5110000510F0000E10E00000000000055
S31500000050000000000000000000000000000000009A
S31500000060000000000000000000000000000000008A
S31500000070000000000000000000000000000000007A
S31500000080000000000000000000000000000000006A
S31500000090000000000000000000000000000000005A
S315000000A0000000000000000000000000000000004A
S315000000B0000000000000000000000000000000003A
S315000000C0000000000000000000000000000000002A
S315000000D0000000000000000000000000000000001A
S315000000E0000000000000000000000000000000000A
S315000000F000000000000000000000000000000000FA
S3150000010000000000000000000000000000000000E9
S3150000011000000000000000000000000000000000D9
S3150000012000000000000000000000000000000000C9
S3150000013000000000000000000000000000000000B9
S3150000014000000000000000000000000000000000A9
S315000001500000000000000000000000000000000099
S315000001600000000000000000000000000000000089
S315000001700000000000000000000000000000000079
S315000001800000000000000000000000000000000069
S315000001900000000000000000000000000000000059
S315000001A00000000000000000000000000000000049
S315000001B00000000000000000000000000000000039
S315000001C00348044B834202D0034B03B118477047E0
S315000001D0580000205800002000000000064B074988
S315000001E0C91A891048BF0131491003D0044B0BB11D
S315000001F001481847704700BF5800002058000020EB
S315000002000000000010B5064C237843B9FFF7D8FF6D
S31500000210044B13B10448AFF300800123237010BDD3
S3150000022078000020000000005C1A000008B5054BAD
S315000002301BB105490548AFF30080BDE80840FFF74C
S31500000240CDBF00BF000000007C0000205C1A00004B
S3150000025010B4054CD4E90023501C43F10001C4E955
S3150000026000015DF8044B7047A800002010B582B06D
S3150000027072B62349234800F00DFF224800F0DAFE4B
S3150000028000F0CCF8204C04222049206000F04AF807
S31500000290034603221E492068636000F043F80246C5
S315000002A01C4B01A96068A260019300F047F84FF467
S315000002B07A71012001F076F80423174A1349206861
S315000002C000F0CEF8154B69461B68A0681A0CADF80D
S315000002D000308DF8022000F031F84FF47A710120D9
S315000002E001F060F803230E4A0949206800F0B8F8C7
S315000002F00423094A0549206800F0B2F862B6FEE711
S3150000030018190000C8000020940000208002000890
S315000003109402000801050304A4000020141900003B
S31500000320A000002070B5044638B10C200E461546D4
S3150000033001F0C8F9C0E90046856070BD002848D0C4
S315000003402DE9F8430546D0E90083D8F808000E46A3
S31500000350191AAB68D8F800205C1E14440C44B1FB93
S31500000360F2F3B4FBF2F4E41A02FB04F403FB020911
S31500000370E31D23F0070300AFADEB030D002122467A
S31500000380684601F065FA23466A464946404600F04B
S3150000039067F8D8B93278104B31461A7072785A70AD
S315000003A0B2789A70D5E90102A0EB0900684401F021
S315000003B06FFA23466A464946286800F097F80028EF
S315000003C018BF6FF00400BD46BDE8F8836FF0020069
S315000003D0F9E74FF0FF307047B00000200378032B99
S315000003E006D8DFE803F00E020A060122074B1A7050
S315000003F070470122064B1A7070470122054B1A708E
S3150000040070470122044B1A70704700BFC4000020D9
S31500000410C7000020C6000020C500002010B584B02B
S3150000042069460C4800F09AF888B9039B0A4C1A688A
S315000004300198A2605A680949E2609A68C36805484B
S31500000440C4E9002300F0A4F9204604B010BD002042
S3150000045004B010BDE8000020B400002040190000E0
S3150000046008B5864678B110461A46DEF808308C463E
S315000004708B4208D8DEF80C3094449C4503D801F032
S3150000048007FA002008BD4FF0FF3008BD48B330B56D
S315000004900D461446036883B072B6B2FBF3F203FB53
S315000004A012431148002B18BF013200F001FB8446AD
S315000004B098B962B60C48224629460DF107038DF815
S315000004C007C000F043FC48B99DF8070001284FF02B
S315000004D0FF3018BF002003B030BD62B64FF0FF30CA
S315000004E0F9E74FF0FF307047E800002058B3F8B541
S315000004F0154600AF1A460E461C46FFF7C7FF0028F2
S315000005001EDB72B6114823463246294600F08AFBA6
S31500000510A8B9E31D23F00703ADEB030D22463146D0
S31500000520684601F0B5F962B622462946684601F0EA
S315000005307FF9003818BF01204042BD46F8BD62B6BB
S315000005404FF0FF30F9E74FF0FF307047E80000202A
S3150000055008B5FFF78BFE002008BD00BF0B46084A12
S3150000056010B492E80300074C03F1080283E8030085
S3150000057094E8030082E8030000205DF8044B70470E
S315000005802C1A0000141A0000F0B501240025374A81
S3150000059080F83450364B82F816440146106A1B68C0
S315000005A0146AC0F3026203FA02F2324EC0F302701A
S315000005B0C4F30264C240A340B24223FA04F351D901
S315000005C02D4803F5742302F5742203F23F2302F249
S315000005D03F22A0FB0343A0FB0202284C920C02F52B
S315000005E0F052A4F8E42043F6B85C44F2506428467E
S315000005F0542540F6D866224F9B0C03FB07F7214A89
S3150000060003FB04F4A2FB07E7BF088F610CFB03F7AB
S31500000610A2FB077CA2FB047403FB05F5A4084C624D
S31500000620194CA2FB057503FB04F4AD084D61A2FB52
S31500000630045403FB06F6A4080C62144CA2FB0676CF
S315000006404FEA9C0704FB03FC5B00A2FB0343A2FBEF
S315000006500C2C9B08B6080B614FEA9C03CE608F609A
S31500000660CB61F0BD4FF4FB70F0BD00BF00E0014070
S3150000067008030020FF083D0083DE1B4300E07F40A7
S3150000068038AF0400ABAAAAAA80DE0F00A0F70300C9
S3150000069030B5C36B83B004460A466D468BB193E80A
S315000006A0030085E803001A70226C18465A60A36B93
S315000006B09847E36B1BB195E8030083E8030003B09A
S315000006C030BD2B46EFE700BF30B482B081B90124BC
S315000006D043682C4D93F911305A0903F01F03203259
S315000006E004FA03F345F82230BFF34F8FBFF36F8F41
S315000006F0E8234FF0020CC26A234D244C22632B7070
S3150000070085F800C0836A02691B8801922B8003E08A
S31500000710019B5A1E019293B1D4F880305B05F7D441
S31500000720C26A836A0232C262026B0233013ABCF1C8
S31500000730010F8362026306D04FF0010CE3E7142039
S3150000074002B030BC7047D0220F4B1A7069B1D4F892
S3150000075080301A0414D40D4A01E00029EFD0D2F8F3
S31500000760803001391B04F8D50AE0436893F911304B
S31500000770044903F01F005A090CFA00F041F8220060
S315000007800020DDE700E100E000007E4000E07F4061
S315000007902DE9F04141600B78044653B9324A13768D
S315000007A013752046FFF7F0FE08B9304B2360BDE80D
S315000007B0F081002701204B68DFF8ACE0A363CB682B
S315000007C0E76323648EF818000A7C91F91130284EED
S315000007D0DFF8A4C01201274D06EB0308D2B288F851
S315000007E000234CF8234003F1C00255F8228067F33A
S315000007F0104845F8228055F82220BFF35F8F5A092A
S31500000800920003F01F0302F1604200FA03F302F5BF
S315000008106142C2F88031136098238EF814308B7CC5
S3150000082091F913201B01DBB2164486F800334CF80D
S31500000830224002F1C00355F8231067F3104145F832
S31500000840231055F82330BFF35F8F53099B0002F046
S315000008501F0203F1604300FA02F203F56143C3F895
S3150000086080211A609DE700BF00E07F404E45504F53
S3150000087000E100E0006000407C0100204FF4964358
S3150000088010B483B0019343681A7802BB4AF68023FA
S315000008902B4AA2F88430B2F884309BB2802B08D160
S315000008A010E0019B013B0193B2F884309BB2802B90
S315000008B008D0019B002BF4D14FF4FA7003B05DF819
S315000008C0044B7047002003B05DF8044B704793F962
S315000008D011301C4A03F1C00152F8214024F480343F
S315000008E042F8214052F82110BFF35F8F012103F037
S315000008F01F045B099B0003F1604303F5614301FAA2
S3150000090004F4C3F880411C60436893F9130000F1B6
S31500000910C00352F8234024F4803442F8234052F8AE
S315000009202330BFF35F8F43099B0000F01F0003F1E4
S315000009306043814003F56143C3F880111960A5E760
S3150000094000E07F400060004030B5436804461A78F6
S3150000095083B0F2B1012293F911305148590903F0DD
S315000009601F03203102FA03F340F82130BFF34F8F03
S31500000970BFF36F8F636893F91330590903F01F03B0
S315000009809A4001F1200340F82320BFF34F8FBFF3B5
S315000009906F8F444BB3F884309BB2002B7AD04FF460
S315000009A09640B321404B3F4A01901970D2F88030EF
S315000009B01D040CD406E0019B013B0193D2F8803064
S315000009C0180404D4019B002BF5D1142007E0354B05
S315000009D040F2F5101B7C13F0100F08BF00205021C9
S315000009E04FF49645304B2F4A00951970D2F8803057
S315000009F019040DD406E0009B013B0093D2F8803029
S31500000A001B0405D4009B002BF5D14FF0140E08E013
S31500000A10244B40F2F51E1B7C13F0100F08BF4FF05D
S31500000A20000E4FF42A431F49002818BF8646B1F826
S31500000A3084C0A1F88430B1F884301FFA8CFC9BB2D4
S31500000A4063B300204FF49642B1F88430002A9BB27B
S31500000A5008BF4FF4FA70013A002BF5D1BCF1010F33
S31500000A6007D000239E4518BF704684F8343003B083
S31500000A7030BD4DF601120B4BA3F844200B4AA2F8E9
S31500000A8004C1B2F804319BB2002BFAD10123A2F8BB
S31500000A900031E6E72046FFF7F1FE80E71846DDE77E
S31500000AA000E100E000E07F4000007E4000C0014021
S31500000AB000232DE9F04321F03F0183B080F8343064
S31500000AC0816202630446FFF7D9FE002840F08E805B
S31500000AD0636884461B78002B55D1676A01234FF063
S31500000AE020084FF0D00E4C494C4EA1F8E030A56AD4
S31500000AF00D6386F8008086F800E0A56A236B403512
S31500000B0003F1FF39A562C4F8309067B1D1F880309F
S31500000B101B0408D43B4601E0002B65D0D1F88020A9
S31500000B20013B1004F8D500206268137843BB0A7CA9
S31500000B30D20649D4D1F880309B0429D4002851D15B
S31500000B40B9F1000FD4D14FF42A433349B1F88440A8
S31500000B50A1F88430B1F88430A4B29BB25BB14FF4F3
S31500000B609642B1F88430002A9BB208BF4FF4FA7C53
S31500000B70013A002BF5D1012C3DD0002808BF604674
S31500000B8003B0BDE8F0830223074684F83430A5E7B6
S31500000B9040BB1920B3214FF49644204B1E4A0194C2
S31500000BA01970D2F88030190407D50AE0019B013B81
S31500000BB00193D2F880301B0403D4019B002BF5D19E
S31500000BC0C1E7154B1B7CBEE7D1F88020550401D543
S31500000BD00A7C0B74D1F880309C04D9D410B940F249
S31500000BE0F510D7E71420D5E714209DE74FF4FA70E7
S31500000BF003B0BDE8F0834DF60111074B084AA3F890
S31500000C004410A2F80441B2F804319BB2002BFAD189
S31500000C100123A2F80031B0E700E07F4000007E40EB
S31500000C2000C00140F0B500255B0880F83450C0E9EB
S31500000C300A1283B003630446FFF720FE0546002828
S31500000C4035D163681B78002B34D1E7683C4E3946B2
S31500000C502046FFF739FD63681B78002B5BD1327C99
S31500000C60D20649D4D6F88030DB0428D450BB206B9A
S31500000C700028ECD14FF42A433149B1F88440A1F859
S31500000C808430B1F88430A4B29BB25BB14FF4964283
S31500000C90B1F88430002A9BB208BF4FF4FA75013AC6
S31500000CA0002BF5D1012C3AD0002818BF054628465E
S31500000CB003B0F0BD0123074684F83430C6E70028A8
S31500000CC008BF1820B3214FF496441E4B1C4A0194CA
S31500000CD01970D2F8803019040BD406E0019B013B51
S31500000CE00193D2F880301B0403D4019B002BF5D16D
S31500000CF0C0E7134B1B7CBDE7D6F88020570401D50F
S31500000D00327C3374D6F88030DC04D8D40028D9D1AC
S31500000D1040F2F510D6E70546284603B0F0BD4DF67D
S31500000D200111074B084AA3F84410A2F80441B2F88F
S31500000D3004319BB2002BFAD10123A2F80031B3E7AC
S31500000D4000E07F4000007E4000C001402DE9F041F8
S31500000D5082B080460F4616461D46FFF78FFD0028D7
S31500000D604FD14FF0710CD0215A4C5B4A731E3B4455
S31500000D7084F8D0002763636382F800C01170D8F846
S31500000D8004301B78002B3FD1D4F88030D8F81410EB
S31500000D90B6081F0406FB01167CD416B984E0002EA3
S31500000DA03AD0D4F88010013E0F04F8D5237CDA0639
S31500000DB067D40026D4F8803046494FF42A4291F889
S31500000DC0D430A3F10103B3FA83F35B092B70B1F8B6
S31500000DD08440A1F88420B1F88430A4B29BB25BB100
S31500000DE04FF49642B1F88430002A9BB208BF4FF404
S31500000DF0FA70013A002BF5D1012C31D0002E18BF24
S31500000E00304602B0BDE8F0810322022388F8342080
S31500000E102B7002B0BDE8F081237CDB0605D5D4F843
S31500000E2080305A0401D5237C2674D4F880301426E9
S31500000E304FF49644B322284B264901941A70D1F8F0
S31500000E4080301F0409D4019B002BB5D0019A013ACA
S31500000E500192D1F880301C04F5D51E4B1B7CABE704
S31500000E604DF601111B4B1D4AA3F84410A2F804418C
S31500000E70B2F804319BB2002BFAD10123A2F800315B
S31500000E80BCE7D4F880305B0415D4D4F8803040F247
S31500000E90F516CDE7237CD9068BD5D4F880305904D6
S31500000EA0F3D5237C2074F0E7237CDA0609D4094BBA
S31500000EB0D3F88030BBE70023227C2374D4F880303B
S31500000EC0E5E7D4F880305B04F1D5237C2074D4F8B0
S31500000ED08030ACE700E07F4000007E4000C001406B
S31500000EE070B5EFF30383174917480A7C103B5CB2D1
S31500000EF050F824501007D1F880100AD4D3B21A063D
S31500000F001CD4DB061CD511F4405F14BF0726062649
S31500000F1000E004262846FFF717FD0C4A04F1C0033B
S31500000F2052F8230020F4803042F8230052F8233090
S31500000F3031462846BDE87040FFF7AABB0526E9E71B
S31500000F400726E7E700E07F407C01002000600040C4
S31500000F5010B5EFF30383103B324A5BB203F1C001D5
S31500000F6052F82100304C20F4803054F8234042F8E7
S31500000F70210052F8213094F83410012932D0022988
S31500000F801DD02A4B93F8D430012B14BF0221032124
S31500000F904FF42A43254AB2F88400A2F8843080B27E
S31500000FA0B2F884309BB2002BFAD1012828D0002356
S31500000FB084F834302046BDE81040FFF769BB216B4A
S31500000FC00029E5D0D0222021A06A184B1863A3F58A
S31500000FD0F03319701A70A26A236B4032013BA26289
S31500000FE0236310BD236B002BD2D000212046FFF7D0
S31500000FF06BFB0028F5D02046BDE81040FFF7A4BCE7
S315000010004DF6011C094B0A4AA3F844C0A2F8040194
S31500001010B2F804319BB2002BFAD10123A2F80031B9
S31500001020C5E700BF006000407C01002000E07F4073
S3150000103000C0014030B4057B846895B104F10C0210
S31500001040117801F001011378C3F340038B42FAD102
S3150000105043681978012907D0F1231370002030BCAA
S31500001060704704F10802EBE70169187C084B43F866
S31500001070201001392DB1F12321601370002030BCFE
S315000010807047F12389B221801370002030BC70476D
S315000010902C010020002370B4037341600A7C0446CF
S315000010A0120202F1804202F568228260EFF3108597
S315000010B0012383F31088087C03287DD8C0F1030040
S315000010C08340DB434448C6680C30334003600E7CE3
S315000010D04248434B032E98BF03461B6885F310888E
S315000010E000231372137AC3F340009B07FAD490725D
S315000010F0227BA3680D7AC869002A5BD00C33C278BC
S31500001100067802F007020079002E4CD1002D5BD143
S315000011101871002098715A709D704B686068236141
S31500001120304A007C42F82030227B013B002A36D030
S31500001130A268136091F91230002B26DB4A7C03F17A
S3150000114060401201D2B200F5614080F800232648C3
S31500001150264A40F8234003F1C00052F8205025F4F7
S31500001160803542F8205052F82020BFF35F8F0120CF
S315000011705A09920003F01F0302F1604202F5614230
S3150000118000FA03F3C2F88031136000204B69184A55
S3150000119063618B692260C4E9060370BC7047A2686C
S315000011A09BB21380C6E7502E06BF002542F05002C0
S315000011B03243ADE70833A2E7C0F113008340064887
S315000011C0DB430669103080E785F0020542EA051226
S315000011D0D2B235469CE700BF004008400C400840AC
S315000011E0104008402C0100207C01002000600040D7
S315000011F054474100F0B585B0EFF30383103B204A16
S315000012005BB203F1C00152F8210020F4803042F8AD
S31500001210210052F821201B4A52F82340237BA5685F
S3150000122053B30C3562682B781278DBB2012A04D1ED
S31500001230F42203F0F0032A702B706269B2B1A6693A
S3150000124001AFDEB196E8070087E807009B0644BFBA
S3150000125000233371E3693046336063699847A369B5
S315000012601BB197E8070083E807002B78DBB203F091
S315000012700F032B7005B0F0BD0835D3E73E46E5E712
S31500001280006000407C010020064B074993F82600C9
S315000012901A6A51F82030C2F302620449D3400B6047
S315000012A0704700BF00E001405800002008030020FE
S315000012B04AF2035001232549254AF0B5A1F8FE0359
S315000012C0A2F80431B2F804319BB2002BFAD14FF4E4
S315000012D0004401201F49204D8C6004F19874C1E937
S315000012E0033304F52D44A2F800010C60174A1B4C89
S315000012F04D6192F826504C60146A82F8800482F898
S31500001300363092F83C30DB07FBD5002043F2121C46
S31500001310F126F0254FF4254E114CA2F828C082F88C
S315000013202A00146282F8260092F826400D4B51F8E6
S315000013302410146A0C4FC4F3026C21FA0CF13960C4
S315000013401E7318721D73A2F8FEE3F0BD00E00140A3
S3150000135000C0014058000020AA21EF0900127A00BF
S3150000136021120221002000400803002010B50024AD
S31500001370064B012083F8284000F0E0F8044B0120DA
S3150000138083F8BB44BDE8104000F0A8B80030084020
S3150000139000E00140704700BFA0F101000028FBD12A
S315000013A0704700BF4FF47A7310B400FB01F1114C83
S315000013B0114A2468B2FBF4F2A1FB03043CB9B0FB6A
S315000013C0F2F0800860B15DF8044BFFF7E5BF9200CC
S315000013D0B1FBF2F1A1FB03132BB908460028F2D1A9
S315000013E05DF8044B70474FF0FF3C5DF8044B6046D8
S315000013F0FFF7D2BF0803002000CA9A3B70B500244D
S315000014000B4B0C4EB3F82021B3F84051ADB215404A
S3150000141025FA04F3DB0704D556F82430E0B203B10D
S31500001420984701340E2CF3D1014BA3F8305170BD0F
S31500001430006000404401002030B5032085B000F074
S315000014407DF86FF0FF054FF0FF31204C0023224658
S315000014504FF0010E1E488564CDE90111039104F198
S31500001460C00532F8020F590960B104A800EB8101EA
S3150000147051F80C0C03F01F0C0EFA0CFC20EA0C00C1
S3150000148041F80C0C954203F10103EAD10199114B85
S315000014900F4A03201167C3F8801202995167C3F8F7
S315000014A0841203999167C3F8881200F017F8002395
S315000014B0094834F8022F03F1C00101330AB140F89C
S315000014C02120A542F5D105B030BD00BF521900005C
S315000014D00080004000E100E000600040EFF3108172
S315000014E0012383F31088124B33F8102092B22AB1ED
S315000014F033F81020013A92B223F8102033F8103056
S315000015009BB293B910B40B4A0B4CB2F8FE3334F8C5
S3150000151010009BB243F4254323EA0003A2F8FE33EE
S3150000152081F310885DF8044B704781F3108870478B
S31500001530FC02002000E00140541A000030B4EFF332
S315000015401081012383F310880E4A32F810309BB2C3
S315000015506BB90D4C0D4DB4F8FE3335F810C09BB287
S3150000156043EA0C0343F425439BB2A4F8FE3332F856
S31500001570103001339BB222F8103081F3108830BC52
S31500001580704700BFFC02002000E00140541A000032
S3150000159008B50C4A0346106840B103330A4923F0E4
S315000015A0030303448B4205D8136008BD0749084668
S315000015B01160F2E700F064F90C2203461A604FF05E
S315000015C0FF3008BD040300205834002058040020D2
S315000015D000BE704708B500F005F8FEF7B9FFFEE754
S315000015E0704700BF4FF4700270B52B4B2B4CC3F8FD
S315000015F0882000209C60FFF7F3FFFFF759FE0120CB
S31500001600FFF7EEFF2368A3F5805383F30A88244887
S31500001610244A0021121A00F01BF92348234A2449C0
S31500001620121A00F035F9234D234B5B1B002B07DD07
S3150000163000249E1055F8043B01349847A642F9DC75
S31500001640FFF722FEFFF792FE0320FFF777FF4FF624
S31500001650FF720024194B03201A825A829A82DA8278
S315000016601A835A839A83DA83FFF738FF0320FFF73A
S3150000167065FF134B03205C609C60DC601C61FFF718
S315000016802DFF0220FFF7ACFFFFF7D6FE2046BDE890
S315000016907040FFF77FBE00BF00ED00E000000000D5
S315000016A0780000205404002000000020580000208C
S315000016B0881A00005000002054000020000D084049
S315000016C000000E40024B0146186800F025B800BF26
S315000016D00000002070B50F4E0C460546316811B962
S315000016E000F0BEF830602146284600F0B9F8431CE9
S315000016F003D14FF0FF34204670BDC41C24F0030410
S31500001700A042F8D0211A284600F0AAF80130F2D1FA
S31500001710EFE700BF0C0300202DE9F843CD1C064679
S3150000172025F0030508350C2D38BF0C25002D01DBEF
S31500001730A94204D90C2333600020BDE8F883DFF802
S31500001740D48000F069F8D8F800301C4644BB29461E
S315000017503046FFF7BFFF431C044658D1D8F8004077
S315000017602746002F43D1002C4BD0236839463046FC
S3150000177004EB030900F074F8814542D12168304634
S315000017806D1A2946FFF7A6FF01303AD023682B448D
S315000017902360D8F800305A6862BBC8F800700FE0C2
S315000017A02268521B20D40B2A17D96119A34225603F
S315000017B018BF5960636808BFC8F8001062514B60D3
S315000017C0304600F02FF804F10B00231D20F007002F
S315000017D0C21A1CBF1B1AA350AFE76268A3420CBF14
S315000017E0C8F800205A60EBE723466468AEE73C463B
S315000017F07F68B6E71A465B68A342FBD100235360B5
S31500001800DEE70C233046336000F00CF894E7056001
S31500001810D6E700BF10030020014800F037B800BF2C
S3150000182050040020014800F032B800BF50040020E8
S315000018300139024410B5904201D1002005E0037839
S3150000184011F8014FA34201D0181B10BD0130F2E779
S3150000185002440346934200D1704703F8011BF9E79F
S3150000186038B50023054D044608462B60FFF790FE69
S31500001870431C02D12B6803B1236038BD4C04002001
S31500001880014B1868704700BF000000207047704782
S315000018900A44431E914200D1704710B511F8014B1E
S315000018A0914203F8014FF9D110BDFFFF4275696CF3
S315000018B07420776974682052656E65736173204180
S315000018C06476616E63656420466C657869626C65F2
S315000018D020536F667477617265205061636B616730
S315000018E0652076657273696F6E20352E352E300051
S315000018F0352E352E3000000000000505F8B500BF76
S31500001900F8BC08BC9E467047F8B500BFF8BC08BCDA
S315000019109E46704705060700000000000100000013
S31500001920000000000000000000000000510200005E
S31500001930000000003819000000000001000000014E
S3150000194000000000DD0300000000000000000000B1
S315000019500B010B02400031003000000000000000C7
S315000019600000000000000000000000000000000071
S315000019700000000000000000000000000000000061
S315000019800000000000000000000000000000000051
S315000019900000000000000000000000000000000041
S315000019A00000000000000000000000000000000031
S315000019B00000000000000000000000000000000021
S315000019C00000000000000000000000000000000011
S315000019D00000000000000000000000000000000001
S315000019E000000000000000000000000000000000F1
S315000019F000000000000000000000000000000000E1
S31500001A0000000000000000000000000000000000D0
S31500001A1000000000010000001C1A00000000000881
S31500001A20FF1F000840000000040000000200000044
S31500001A30341A000000000000FFFF00000020000034
S31500001A408000000000000100FFFF0300008000008E
S31500001A5080000000010002000800100010000000D5
S31500001A6000000000017A5200027C0E011B0C0D00E2
S31500001A701000000018000000000000001000000028
S30D00001A80000000000000000058
S31500001A880400002000000000140300207C0300204E
S31500001A98E403002000000000000000000000000031
S31500001AA80000000000000000000000000000000028
S31500001AB80000000000000000000000000000000018
S31500001AC80000000000000000000000000000000008
S30D00001AD82D02000005020000CA
S3150100A100FFFFFFFFFFFFFFFFFFFFFFFFFFFFFFFF58
S3090100A134FFFFFFFF24
S3150100A200FFFDFFFFFFFFFFFFFFFFFFFFFFFFFFFF59
S3150100A210FFFFFFFFFFFFFFFFFFFFFFFFFFFFFFFF47
S3150100A220FFFFFFFFFFFFFFFFFFFFFFFFFFFFFFFF37
S3150100A230FFFFFFFFFFFFFFFFFFFFFFFFFFFFFFFF27
S3150100A240FFFFFFFFFFFFFFFFFFFFFFFFFFFFFFFF17
S3150100A250FFFFFFFFFFFFFFFFFFFFFFFFFFFFFFFF07
S3150100A260FFFFFFFFFFFFFFFFFFFFFFFFFFFFFFFFF7
S3150100A270FFFFFFFFFFFFFFFFFFFFFFFFFFFFFFFFE7
S3150100A280F8F8FFFFFFFFFFFFFFFFFFFFFFFFFFFFE5
S3150100A290FFFFFFFFFFFFFFFFFFFFFFFFFFFFFFFFC7
S3150100A2A0FFFFFFFFFFFFFFFFFFFFFFFFFFFFFFFFB7
S3150100A2B0FFFFFFFFFFFFFFFFFFFFFFFFFFFFFFFFA7
S3150100A2C0FFFFFFFFFFFFFFFFFFFFFFFFFFFFFFFF97
S705000015D510
