:10000000880C0020B50F00001D0E0000B10F00008D
:10001000B10F0000B10F0000B10F0000B10F0000E0
:10002000000000000000000000000000B10F000010
:10003000B10F000000000000B10F0000B10F000080
:10004000650B000011090000A1080000000000007D
:1000500000000000000000000000000000000000A0
:100060000000000000000000000000000000000090
:100070000000000000000000000000000000000080
:100080000000000000000000000000000000000070
:100090000000000000000000000000000000000060
:1000A0000000000000000000000000000000000050
:1000B0000000000000000000000000000000000040
:1000C0000000000000000000000000000000000030
:1000D0000000000000000000000000000000000020
:1000E0000000000000000000000000000000000010
:1000F0000000000000000000000000000000000000
:1001000000000000000000000000000000000000EF
:1001100000000000000000000000000000000000DF
:1001200000000000000000000000000000000000CF
:1001300000000000000000000000000000000000BF
:1001400000000000000000000000000000000000AF
:10015000000000000000000000000000000000009F
:10016000000000000000000000000000000000008F
:10017000000000000000000000000000000000007F
:10018000000000000000000000000000000000006F
:10019000000000000000000000000000000000005F
:1001A000000000000000000000000000000000004F
:1001B000000000000000000000000000000000003F
:1001C0000348044B834202D0034B03B118477047E6
:1001D000F8050020F805002000000000064B074944
:1001E000C91A891048BF0131491003D0044B0BB123
:1001F00001481847704700BFF8050020F8050020A7
:100200000000000010B5064C237843B9FFF7D8FF73
:10021000044B13B10448AFF300800123237010BDD9
:1002200018060020000000007412000008B5054BFD
:100230001BB105490548AFF30080BDE80840FFF752
:10024000CDBF00BF000000001C060020741200009B
:1002500010B5054C00F0ACF8D4E90023501C43F174
:100260000001C4E9000110BD380600200378032B0B
:1002700006D8DFE803F00E020A060122074B1A70C7
:1002800070470122064B1A7070470122054B1A7005
:1002900070470122044B1A70704700BF34060020DB
:1002A00037060020360600203506002010B592B033
:1002B00072B63649364800F0A5FB354800F072FBAF
:1002C00062B600213E220DF10A008DF8071000F001
:1002D000E9FE40F201332F492F48ADF8083000F015
:1002E00015F900B100BE01222C492B4800F08AFA12
:1002F00000B101BE274C23782BB1294A1378002B7B
:10030000FCD0002313704022244923480DF1070339
:1003100000F0D8F900B104BE9DF80730012B20D0C1
:10032000022B20D040231D4A1B4802A900F02AFAC4
:1003300000B102BE23782BB11A4A1378002BFCD0EF
:100340000023137000F034F84FF47A710A2000F0A3
:1003500039FD00F02DF84FF47A710A2000F032FDDB
:10036000F0E705BEDEE7104A104901E00B7813B94B
:100370001378002BFAD0137803F0FF000BB9087044
:10038000D0E70023137006BECCE700BF7011000059
:100390004406002098110000640600208002000836
:1003A00035060020340600203706002036060020DF
:1003B000024A136801331360704700BF40060020F3
:1003C00008B5FFF773FF002008BD00BFF0B501249A
:1003D0000025374A80F83450364B82F816440146DF
:1003E000106A1B68146AC0F3026203FA02F2324E0A
:1003F000C0F30270C4F30264C240A340B24223FAC5
:1004000004F351D92D4803F5742302F5742203F245
:100410003F2302F23F22A0FB0343A0FB0202284C31
:10042000920C02F5F052A4F8E42043F6B85C44F2D2
:1004300050642846542540F6D866224F9B0C03FB97
:1004400007F7214A03FB04F4A2FB07E7BF088F610B
:100450000CFB03F7A2FB077CA2FB047403FB05F56E
:10046000A4084C62194CA2FB057503FB04F4AD080B
:100470004D61A2FB045403FB06F6A4080C62144C65
:10048000A2FB06764FEA9C0704FB03FC5B00A2FB81
:100490000343A2FB0C2C9B08B6080B614FEA9C039C
:1004A000CE608F60CB61F0BD4FF4FB70F0BD00BF3C
:1004B00000E0014080080020FF083D0083DE1B4370
:1004C00000E07F4038AF0400ABAAAAAA80DE0F008C
:1004D000A0F7030030B5C36B83B004460A466D46EF
:1004E0008BB193E8030085E803001A70226C18466C
:1004F0005A60A36B9847E36B1BB195E8030083E850
:10050000030003B030BD2B46EFE700BF2DE9F041FB
:1005100041600B78044653B9324A1376137520466E
:10052000FFF754FF08B9304B2360BDE8F081002786
:1005300001204B68DFF8ACE0A363CB68E76323647A
:100540008EF818000A7C91F91130284EDFF8A4C00B
:100550001201274D06EB0308D2B288F800234CF8AD
:10056000234003F1C00255F8228067F3104845F894
:10057000228055F82220BFF35F8F5A09920003F0C2
:100580001F0302F1604200FA03F302F56142C2F870
:100590008031136098238EF814308B7C91F91320EE
:1005A0001B01DBB2164486F800334CF8224002F1FE
:1005B000C00355F8231067F3104145F8231055F890
:1005C0002330BFF35F8F53099B0002F01F0203F13A
:1005D000604300FA02F203F56143C3F880211A6018
:1005E0009DE700BF00E07F404E45504F00E100E036
:1005F00000600040F80600204FF4964310B483B02A
:10060000019343681A7802BB4AF680232B4AA2F86A
:100610008430B2F884309BB2802B08D110E0019B6B
:10062000013B0193B2F884309BB2802B08D0019B30
:10063000002BF4D14FF4FA7003B05DF8044B70470F
:10064000002003B05DF8044B704793F911301C4A49
:1006500003F1C00152F8214024F4803442F82140D3
:1006600052F82110BFF35F8F012103F01F045B09D3
:100670009B0003F1604303F5614301FA04F4C3F8FE
:1006800080411C60436893F9130000F1C00352F8E5
:10069000234024F4803442F8234052F82330BFF33F
:1006A0005F8F43099B0000F01F0003F1604381400E
:1006B00003F56143C3F880111960A5E700E07F40AE
:1006C00000600040B1F1006FF8B50C4607461546D2
:1006D0001E4610D200238A1880F83430337015B9C2
:1006E00007E0944205D021780134FF29F9D0012395
:1006F00033700020F8BDFFF77FFF0028FAD14FF0DC
:10070000710E4FF0D00C1D491D4A6B1E234481F819
:10071000D0000C634B6382F800E082F800C07B6875
:100720001B7813BBD1F880307A69AD081C0405FB37
:10073000022205D4FAB1D1F88030013A1B04F9D570
:100740004FF4FC72002100F007FD0C4B044693F8B7
:10075000D430A3F10103B3FA83F35B09337000F0E3
:10076000FFFC002C18BF2046F8BD0322022387F8A7
:1007700034203370BDE71420E2E700BF00E07F4083
:1007800000007E4070B500255B08B2F1006FC0E943
:100790000A1280F83450036303D2BDE8704000F0C1
:1007A000D3BC0446FFF728FF0346B8B96268127845
:1007B000B2B9E66808E018224FF4805100F0CCFC92
:1007C000236B05468BB1C0B932460421204600F0A8
:1007D000B7FC626803461278002AECD0184670BD58
:1007E0000122064684F83420EEE700F0B9FC034607
:1007F000002DF3D02B46184670BD00F0B1FC2B46FF
:10080000F9E700BF0023B1F1006F70B5044680F82E
:1008100034300AD2BDE87040B1F5803F34BF6FF389
:100820000C016FF30E0100F09FBC21F03F018162CB
:100830000263FFF7E1FE064660BB63681B78D3B92D
:10084000666A0122154BA3F8E02008E019224FF454
:10085000005100F081FC236B054683B1B0B9402103
:100860003246204600F074FC61680346097800298E
:10087000ECD0184670BD022384F83430E1E700F074
:100880006FFC0346002DF4D02B46F2E700F068FC25
:100890002B46EEE74FF4FA73EBE700BF00E07F4032
:1008A00070B5EFF30383174917480A7C103B5CB21D
:1008B00050F824501007D1F880100AD4D3B21A0689
:1008C0001CD4DB061CD511F4405F14BF0726062696
:1008D00000E00426284600F02FFC0C4A04F1C00377
:1008E00052F8230020F4803042F8230052F82330DD
:1008F00031462846BDE87040FFF7ECBD0526E9E724
:100900000726E7E700E07F40F8060020006000408F
:1009100038B5EFF30383103B1F4A5BB203F1C0010C
:1009200052F821001D4C20F4803054F8235042F836
:10093000210052F8213095F83440012C1DD0022CB2
:1009400011D0174B93F8D430012B14BF0224032489
:1009500000F006FC002385F8343021462846BDE827
:100960003840FFF7B7BD2C6B002CF1D02846BDE80E
:1009700038400022402100F0EBBB2B6B002BE7D06E
:1009800000220421284600F0DBFB00B938BD2846D0
:10099000BDE8384000F0D0BB00600040F806002001
:1009A00000E07F4030B4057B846895B104F10C020F
:1009B000117801F001011378C3F340038B42FAD19F
:1009C00043681978012907D0F1231370002030BC47
:1009D000704704F10802EBE70169187C084B43F803
:1009E000201001392DB1F12321601370002030BC9B
:1009F0007047F12389B221801370002030BC70470A
:100A0000A8060020002370B4037341600A7C0446EA
:100A1000120202F1804202F568228260EFF3108533
:100A2000012383F31088087C03287DD8C0F10300DC
:100A30008340DB434448C6680C30334003600E7C7F
:100A40004248434B032E98BF03461B6885F310882A
:100A500000231372137AC3F340009B07FAD49072F9
:100A6000227BA3680D7AC869002A5BD00C33C27858
:100A7000067802F007020079002E4CD1002D5BD1E0
:100A80001871002098715A709D704B6860682361DE
:100A9000304A007C42F82030227B013B002A36D0CD
:100AA000A268136091F91230002B26DB4A7C03F117
:100AB00060401201D2B200F5614080F80023264860
:100AC000264A40F8234003F1C00052F8205025F494
:100AD000803542F8205052F82020BFF35F8F01206C
:100AE0005A09920003F01F0302F1604202F56142CD
:100AF00000FA03F3C2F88031136000204B69184AF2
:100B000063618B692260C4E9060370BC7047A26808
:100B10009BB21380C6E7502E06BF002542F050025C
:100B20003243ADE70833A2E7C0F113008340064823
:100B3000DB430669103080E785F0020542EA0512C2
:100B4000D2B235469CE700BF004008400C40084048
:100B500010400840A8060020F80600200060004071
:100B600054474100F0B585B0EFF30383103B204AB2
:100B70005BB203F1C00152F8210020F4803042F84A
:100B8000210052F821201B4A52F82340237BA568FC
:100B900053B30C3562682B781278DBB2012A04D18A
:100BA000F42203F0F0032A702B706269B2B1A669D7
:100BB00001AFDEB196E8070087E807009B0644BF57
:100BC00000233371E3693046336063699847A36952
:100BD0001BB197E8070083E807002B78DBB203F02E
:100BE0000F032B7005B0F0BD0835D3E73E46E5E7AF
:100BF00000600040F8060020064B074993F82600E5
:100C00001A6A51F82030C2F302620449D3400B60E3
:100C1000704700BF00E00140F80500208008002078
:100C2000704700BFF8B54AF2035001233D493E4AE0
:100C3000A1F8FE03A2F80431B2F804319BB2002BF4
:100C4000FAD14FF4004001270925384CDFF8F0C0F5
:100C5000374EC4F804C0DFF8ECC03249C4F80CC009
:100C6000DFF8E4C0C4F814C0A2F800712660A060E8
:100C7000206191F82620086A54F822202D4EC0F3F6
:100C80000260C240326081F8133481F8A25091F8BA
:100C900080341BB991F881349A073ED0214D95F8E4
:100CA00080347BB300221F4B83F8812483F8802497
:100CB00000231C4A82F8363092F83C30DB07FBD523
:100CC000002143F212174FF0F10E4FF0F00C4FF4E9
:100CD00025451948178582F82A10106282F82610D7
:100CE00092F82600154B54F82000146AC4F30264ED
:100CF000E040306083F80CE0197283F80CC0A2F871
:100D0000FE53F8BD0121C82085F8801400F05AF880
:100D100095F88034012BFBD1C4E74FF47A70FFF7CC
:100D20007FFFC5E700E0014000C00140F80500205A
:100D3000002D3101800800202112022100200040F6
:100D400000127A0000366E01AA21EF0938B500259D
:100D5000164C0121C82084F8285000F033F884F89C
:100D6000245094F82430002BFBD194F824300F4AFF
:100D700043F0020384F8243092F82430C3F3400196
:100D80009B07F9D4094882F8221090F8223003F02A
:100D9000FF04002BF9D1012000F0E0F8044B012002
:100DA00083F8BB44BDE8384000F0A8B800300840E4
:100DB00000E00140704700BFA0F101000028FBD116
:100DC000704700BF4FF47A7310B400FB01F1114C6F
:100DD000114A2468B2FBF4F2A1FB03043CB9B0FB56
:100DE000F2F0800860B15DF8044BFFF7E5BF9200B8
:100DF000B1FBF2F1A1FB03132BB908460028F2D195
:100E00005DF8044B70474FF0FF3C5DF8044B6046C3
:100E1000FFF7D2BF8008002000CA9A3B70B50024BB
:100E20000B4B0C4EB3F82021B3F84051ADB2154036
:100E300025FA04F3DB0704D556F82430E0B203B1F9
:100E4000984701340E2CF3D1014BA3F8305170BDFB
:100E500000600040C006002030B5032085B000F0DF
:100E60007DF86FF0FF054FF0FF31204C0023224644
:100E70004FF0010E1E488564CDE90111039104F184
:100E8000C00532F8020F590960B104A800EB8101D6
:100E900051F80C0C03F01F0C0EFA0CFC20EA0C00AD
:100EA00041F80C0C954203F10103EAD10199114B71
:100EB0000F4A03201167C3F8801202995167C3F8E3
:100EC000841203999167C3F8881200F017F8002381
:100ED000094834F8022F03F1C00101330AB140F888
:100EE0002120A542F5D105B030BD00BFAA110000F8
:100EF0000080004000E100E000600040EFF310815E
:100F0000012383F31088124B33F8102092B22AB1D8
:100F100033F81020013A92B223F8102033F8103041
:100F20009BB293B910B40B4A0B4CB2F8FE3334F8B1
:100F300010009BB243F4254323EA0003A2F8FE33DA
:100F400081F310885DF8044B704781F31088704777
:100F50007808002000E001406C12000030B4EFF38C
:100F60001081012383F310880E4A32F810309BB2AF
:100F70006BB90D4C0D4DB4F8FE3335F810C09BB273
:100F800043EA0C0343F425439BB2A4F8FE3332F842
:100F9000103001339BB222F8103081F3108830BC3E
:100FA000704700BF7808002000E001406C1200008C
:100FB00000BE704708B500F005F8FFF701FAFEE73C
:100FC000704700BF4FF4700270B52B4B2B4CC3F829
:100FD000882000209C60FFF7F3FFFFF723FE01202D
:100FE000FFF7EEFF2368A3F5806383F30A882448A4
:100FF000244A0021121A00F055F82348234A2449B4
:10100000121A00F057F8234D234B5B1B002B07DD12
:1010100000249E1055F8043B01349847A642F9DCA1
:10102000FFF7EAFDFFF792FE0320FFF797FF4FF669
:10103000FF720024194B03201A825A829A82DA82A4
:101040001A835A839A83DA83FFF758FF0320FFF746
:1010500085FF134B03205C609C60DC601C61FFF724
:101060004DFF0220FFF7ACFFFFF7F6FE2046BDE87C
:101070007040FFF79FBE00BF00ED00E000000000E1
:10108000180600208408002000000020F805002039
:10109000A0120000F0050020F4050020000D08401B
:1010A00000000E4002440346934200D1704703F80B
:1010B000011BF9E70A44431E914200D1704710B565
:1010C00011F8014B914203F8014FF9D110BDFFFF18
:1010D0004275696C7420776974682052656E657317
:1010E000617320416476616E63656420466C657847
:1010F00069626C6520536F66747761726520506118
:10110000636B6167652076657273696F6E20352E3B
:10111000352E3000352E352E30000000000005053C
:10112000F8B500BFF8BC08BC9E467047F8B500BFD4
:10113000F8BC08BC9E4670475FF800F0090100202B
:101140005FF800F0F10100205FF800F06504002076
:101150005FF800F09D0100205FF800F0DD02002044
:101160005FF800F0010000205FF800F0A904002003
:10117000000000000100000000000000000000006E
:10118000000000005102000000000000901100006B
:101190000000000100000001010000006D020000DD
:1011A00000000000000000000101010240003100C9
:1011B00030000000000000000000000000000000FF
:1011C000000000000000000000000000000000001F
:1011D000000000000000000000000000000000000F
:1011E00000000000000000000000000000000000FF
:1011F00000000000000000000000000000000000EF
:1012000000000000000000000000000000000000DE
:1012100000000000000000000000000000000000CE
:1012200000000000000000000000000000000000BE
:1012300000000000000000000000000000000000AE
:10124000000000000000000000000000000000009E
:10125000000000000000000000000000000000008E
:10126000000000000000000000000000010002007B
:10127000080010001000000000000000017A520079
:10128000027C0E011B0C0D00100000001800000075
:10129000000000001000000000000000000000003E
:1012A0004FF42A431649B1F884C0A1F88430B1F84C
:1012B00084001FFA8CFC80B268B14FF49642002083
:1012C00003E0002A08BF4FF4FA70B1F88430013A05
:1012D0009BB2002BF5D1BCF1010F00D070474DF649
:1012E0000111074B074AA3F84410A2F804C1B2F851
:1012F00004319BB2002BFAD10123A2F800317047D0
:1013000000E07F4000C00140B3214FF49640104BF5
:10131000104A82B001901970D2F8803019040DD4AF
:1013200006E0019B013B0193D2F880301B0405D4F9
:10133000019B002BF5D1142002B07047054B40F201
:10134000F5101B7C13F0100F08BF002002B070478F
:1013500000007E4000E07F4050214FF49640104B4B
:10136000104A82B001901970D2F8803019040DD45F
:1013700006E0019B013B0193D2F880301B0405D4A9
:10138000019B002BF5D1142002B07047054B40F2B1
:10139000F5101B7C13F0100F08BF002002B070473F
:1013A00000007E4000E07F4070B5436804461A7834
:1013B000F2B1012293F911301E48590903F01F03BD
:1013C000203102FA03F340F82130BFF34F8FBFF30F
:1013D0006F8F636893F91330590903F01F039A4024
:1013E00001F1200340F82320BFF34F8FBFF36F8F2D
:1013F000114BB3F884309BB2C3B1FFF785FF0546AC
:10140000FFF7AAFF064635B1FFF74AFF002384F82D
:101410003430284670BDFFF743FF0023002E14BF71
:101420003546054684F83430284670BD204600F025
:1014300023FAE2E700E100E000E07F40034630B538
:101440004FF0D00C4FF0200E10460F4D9A6A0F4C03
:10145000226385F800E085F800C09A6A0A449A621F
:101460001A6B013A1A6320B1D4F880301A0402D5FD
:10147000002030BD28B1D4F8803001381B04F9D5E4
:10148000F6E7142030BD00BF00007E4000E07F4042
:10149000F0B44D0882B0C1F34701002A4AD10126B9
:1014A0004368334F93F911305C0903F01F03203474
:1014B00006FA03F347F82430BFF34F8FBFF36F8F63
:1014C000E824C76A2B4B2C4E37631C701970002D13
:1014D0004BD04FF0000C836A264E274C01691B88C5
:1014E0000191338004E0019B591E0191002B38D0FB
:1014F000D4F880305F05F6D4C16A836A0231C162D4
:10150000016B0CF1010C02330139AC4583620163BC
:10151000E4D3D021174B1970BAB9436893F911304D
:10152000012203F01F0012495B09824041F8232089
:10153000002017E0E824C76A0E4B0F4E37631C707B
:101540001970002DC5D1D02119700B49D1F8803008
:101550001804EDD4D1F88030013A1B04E8D4002AF5
:10156000F8D1142002B0F0BC7047D0221A70D4E732
:1015700000E100E000007E4000E07F4010B5134B2A
:101580001C7CE40607D4D3F8803019420FD1B0B9DF
:101590000024204610BDD3F88040640403D5002405
:1015A00093F810C01C74D3F88030194209D030B9B8
:1015B000002AEDD01446FFF7A7FE204610BD0446D2
:1015C000F9E70028FBD140F2F514F4E700E07F4092
:1015D00030B508224FF0400E8069144C144D154B65
:1015E00083B0019003F1100C296384F800E02270AD
:1015F00033F8022F63452280FAD1D0230C4A23709E
:10160000D2F8803019040DD406E0019B013B019310
:10161000D2F880301B0405D4019B002BF5D1142097
:1016200003B030BD002003B030BD00BF00007E40DD
:1016300000E07F40DE0500206FEA415110B44FF01A
:10164000FF346FEA5151064B42EAC032C3E902440B
:1016500042F4F0421C60DA8099805DF8044B7047D8
:10166000E00500204FF4964310B483B00193436823
:101670001A78F2B1012293F91130204C590903F084
:101680001F03203102FA03F344F82130BFF34F8FD8
:10169000BFF36F8F436893F91330590903F01F03A9
:1016A0009A4001F1200344F82320BFF34F8FBFF38A
:1016B0006F8F4AF601234FF45941114AA2F84410A2
:1016C000A2F88430B2F884309BB2012B08D110E02C
:1016D000019B013B0193B2F884309BB2012B08D0EF
:1016E000019B002BF4D14FF4FA7003B05DF8044B6A
:1016F0007047002003B05DF8044B704700E100E044
:1017000000E07F4038B50546FFF7ACFFA0B92B6B72
:101710000BB916E088B98021AA682846FFF7B8FE01
:1017200018224FF4A041FFF729FF2B6B0446002B32
:10173000F0D1FFF7B5FD14B938BDFFF7B1FD204674
:1017400038BDBDE83840ABE538B581620263044678
:10175000FFF788FF08BB0122144BA3F8E020236B9E
:101760000BB91FE0D0B9D4E90732A16A2046B1F520
:10177000803F36BF1A464FF400414FF40051FFF747
:101780005DFE19224FF4C041FFF7F8FE236B0546BA
:10179000002BE7D1FFF784FD15B938BDFFF780FDB9
:1017A000284638BDBDE838407AE500BF00E07F40FC
:1017B0002DE9F041114B05460E469046D3F8DC70FA
:1017C000FFF750FF0446A8B9FF0F4FEA58323846DA
:1017D000710BFFF731FF28460949FFF7F9FE214653
:1017E0001822FFF7CBFE0546FFF75AFD002D14BF68
:1017F0002C4604462046BDE8F08100BF00E07F4053
:1018000030A10001F8B507460D461646FFF72AFF3E
:10181000044630BB3EB1144B45F4CC41A3F8E8106C
:10182000BDE8F8403CE54FF6FF7115F0010F4FF0B1
:10183000FF3247F6FF7508BF0D460C4B0C49384682
:10184000C3E90022C3E90222DD80FFF7C1FE214681
:101850001822FFF793FE0446FFF722FD002C08BF75
:1018600004462046F8BD00BF00E07F40E0050020B0
:1018700030A10001000000005FF800F0F905000051
:10188000FFFF00000000000000000000000000005A
:081890002D020000050200001A
:020000040100F9
:10A10000FFFFFFFFFFFFFFFFFFFFFFFFFFFFFFFF5F
:04A13400FFFFFFFF2B
:10A20000FFFDFFFFFFFFFFFFFFFFFFFFFFFFFFFF60
:10A21000FFFFFFFFFFFFFFFFFFFFFFFFFFFFFFFF4E
:10A22000FFFFFFFFFFFFFFFFFFFFFFFFFFFFFFFF3E
:10A23000FFFFFFFFFFFFFFFFFFFFFFFFFFFFFFFF2E
:10A24000FFFFFFFFFFFFFFFFFFFFFFFFFFFFFFFF1E
:10A25000FFFFFFFFFFFFFFFFFFFFFFFFFFFFFFFF0E
:10A26000FFFFFFFFFFFFFFFFFFFFFFFFFFFFFFFFFE
:10A27000FFFFFFFFFFFFFFFFFFFFFFFFFFFFFFFFEE
:10A28000F8F8FFFFFFFFFFFFFFFFFFFFFFFFFFFFEC
:10A29000FFFFFFFFFFFFFFFFFFFFFFFFFFFFFFFFCE
:10A2A000FFFFFFFFFFFFFFFFFFFFFFFFFFFFFFFFBE
:10A2B000FFFFFFFFFFFFFFFFFFFFFFFFFFFFFFFFAE
:10A2C000FFFFFFFFFFFFFFFFFFFFFFFFFFFFFFFF9E
:0400000300000FB535
:00000001FF
